:020000040800F2
:100000000048002049010008F71900081302000801
:10001000F51900088D110008652100080000000096
:10002000000000000000000000000000A11B00080C
:10003000AD160008000000009B010008591C0008D4
:100040006301000863010008630100086301000800
:1000500063010008630100086301000863010008F0
:1000600063010008630100086301000863010008E0
:1000700063010008630100086301000863010008D0
:1000800063010008630100086301000863010008C0
:100090006301000891110008630100086301000872
:1000A00063010008BD1C000863010008630100082B
:1000B000311D0008411D00086301000863010008AC
:1000C0006301000863010008630100086301000880
:1000D000630100089D1F0008630100086301000818
:1000E0006301000863010008630100086301000860
:1000F0006301000863010008630100086301000850
:10010000630100086301000863010008630100083F
:10011000630100086301000863010008630100082F
:10012000630100086301000863010008630100081F
:10013000DFF810D000F00EFD004800475D10000809
:10014000AFF300800048002006488047064800477B
:10015000FEE7FEE7FEE7FEE7FEE7FEE7FEE7FEE777
:10016000FEE7FEE76D1C000831010008EFF3108088
:1001700072B6704780F310887047324A1368012BBB
:1001800004D04FF0010313602F4A10602F4A116012
:100190002F484FF0805101607047EFF3108272B624
:1001A0002848016891B14FF00001016026480168BC
:1001B00029B1EFF3098121E9F00F006801602349BB
:1001C00009680968B1E8F00F81F3098882F31088A3
:1001D0004EF0040E70471D4908601B494FF00000A7
:1001E000086018494FF0010008601A484FF47F0179
:1001F000D0F8002041EA0201016015484FF080511B
:10020000016015480068006880F3088861B662B62E
:1002100070471EF0040F14BFEFF30880EFF309805E
:1002200020E9F00F40F804ED14BF80F3088880F354
:10023000098800B502F002FC5DF804EB4EF0040EF4
:1002400070470000480100204001002044010020C8
:1002500004ED00E020ED00E008ED00E070B506469A
:1002600001F082FF046805460A220021304600F0B2
:10027000A5FB2C6070BDF0B480EA0102D40F4200EF
:10028000B2EB410F02D20246084611464A0042D064
:10029000C30DDDB2C1F3C752AD1A202D35DAC1F35B
:1002A000160141F4000204B15242C5F1200602FADF
:1002B00006F12A411044B3EBD05F23D0C4B1012D25
:1002C000A0EBC35009DCF0BC4FF0004202EAC3527D
:1002D000DBB200F5000000F0B2BB400000F180701E
:1002E00000EBC350A0F1807040EAD170490009E0F2
:1002F000490841EAC071A0EBC35000F50000400876
:1003000000EBC350F0BC00F091BB6142012202EB54
:100310004101001BF6E7F0BC704781F00041AAE7FD
:1003200080F00040A7E780EA010210B502F0004328
:10033000400022D04A001FD0010E01EB1261C0F331
:100340005600C2F3560240F4000042F40002A0FB43
:10035000022000047F39140400D0401C50EA1240EF
:1003600001D44000491EC2B20C0604EBD010401C60
:100370004008802A02D003E0002010BD20F00100D8
:10038000002900DA0020184310BD30B480EA0102D1
:1003900002F0004530F0004221F0004013D090B14F
:1003A000C30DD40DC2F31601C0F31600E41A41F4D4
:1003B000000140F400027D34914201D3641C00E04E
:1003C0004900002C02DA30BC002070474FF40000D6
:1003D0000023914201D3891A034340084FEA4101A7
:1003E000F7D151B1914202D14FF0004105E002D264
:1003F0004FF0010101E06FF0010103EBC45028440C
:1004000030BC00F013BB420005D0C0F3C7525242CB
:10041000914201DC0020704700EBC15070472DE98C
:10042000FE4F804681EA0300C00F0C46009021F089
:10043000004123F00045B8EB0200A94105D2404637
:10044000214690461C460B46024623F000401043CE
:1004500047D0270DC7F30A00C3F30A510290401A90
:10046000019040286BDAC3F3130040F4801B00981E
:10047000924620B10023D2EB030A63EB0B0B0198E9
:100480005946C0F14002504600F018FA06460D46A3
:1004900050465946019A00F030FA10EB08006141CD
:1004A000002487EA115284EAE7731A4340D0009A85
:1004B00062B3019A012A4FEA075215DC001B61EB77
:1004C00002014FF0004202EA0752CDE90042001C4F
:1004D00041F5801132462B4600F0EEFA03B0BDE83C
:1004E000F08F40462146F9E7001B61EB0201001C3A
:1004F00041F5801300185B412018A2F5001747EB67
:10050000030140EAD570B6196D4111E06D084FEA5C
:10051000360645EAC0754FEA0752001B61EB02013F
:10052000001C41F5801149084FEA30000019514183
:1005300032462B4603B0BDE8F04F00F0AEBA00984B
:10054000012240000023D0EB020263EBE07300982D
:1005500021464FEAE074B8EB000061EB0401E9E7E3
:1005600083F000435BE781F0004158E72DE9FE4F3F
:1005700081EA030404F0004421F0004100944FF0AC
:10058000000B23F0004350EA01045ED052EA03045A
:100590005BD0C3F30A54C1F30A552C44A4F2F334DC
:1005A0000194A0FB0254C1F3130141F48011C3F381
:1005B000130343F4801301FB024400FB034E840A3F
:1005C000970A44EA815447EA8357A4FB07680295D7
:1005D0008D0A05FB07854FEA932C04FB0C54270575
:1005E000029D4FEA065847EA1637B5EB08056EEB51
:1005F000070C870E920E47EA811742EA8312A7FB87
:100600000201B6EB0B0164EB00042B0D43EA0C3343
:100610005E1844EB1C50DA465146E7FB0201C5F375
:1006200013044FEA0B3343EA14534FEA0432019C9C
:1006300043EA0603A4F10C040294009CCDE900B443
:1006400000F03AFA03B0BDE8F08F00200146F9E768
:100650002DE9F04D81EA030404F0004B21F0004540
:1006600014464FF0000A23F0004150EA050220D062
:1006700054EA01021DD0C5F30A570246C5F313031D
:10068000C1F31300C1F30A5640F4801543F48013FC
:10069000A7EB0608101BD64608F2FD3873EB0500E1
:1006A00002D308F1010801E092185B41B8F1000F94
:1006B00003DA00200146BDE8F08D00204FF48011E0
:1006C000064684460EE0171B73EB050705D3121B85
:1006D00063EB050306434CEA010C49084FEA30007E
:1006E00092185B4150EA0107EDD152EA030012D0A3
:1006F00082EA040083EA0501084305D0101BAB41E0
:1007000006D20122002306E000224FF0004302E05F
:100710006FF0010253101AEB06004CEB085110EB7E
:100720000A0041EB0B01BDE8F04D00F0B6B970B521
:1007300021F0004303430CD0C1F30A550024D5EB4C
:10074000040564EB0403D617AD1AB34102DB0020A5
:10075000014670BD201841EB025170BDC10F80EA07
:10076000E0700844CA079623002100F068B9962378
:100770000022114600F063B90EB5C10F80EAE070A7
:100780000844CA07002140F233438DE80E000A46B0
:100790000B4600F091F903B000BD00F0004220F0DC
:1007A0000040C10DC0F3160040F400007F2901DABB
:1007B00000207047962903DCC1F19601C84001E092
:1007C00096398840002AF4D040427047C1F30A525B
:1007D00010B5C1F3130140F2FF3341F480119A4286
:1007E00001DA002010BD40F233439A42A2F23342B4
:1007F00003DC524200F071F810BD904010BD00F0D3
:10080000004230F000400AD0C10D01F56071C0F324
:10081000160042EA0151C208400711437047002008
:100820000146704730B5041E71F1000404DB4FF03F
:100830000044404264EB0101141E73F1000405DB27
:100840001C464FF00043524263EB04038B4208BF47
:10085000824230BD30B5041E71F1000404DB4FF05C
:100860000044404264EB0101141E73F1000405DBF7
:100870001C464FF00043524263EB0403994208BF09
:10088000904230BD01F0004330B421F0004150EA05
:10089000010206D00A0DA2F56072C1F31301002A0D
:1008A00002DC30BC00207047440F44EAC104C100A0
:1008B000E01830BC00EBC25000F0B8B8202A04DBCE
:1008C000203A00FA02F1002070479140C2F1200363
:1008D00020FA03F3194390407047202A04DB203AA2
:1008E00021FA02F00021704721FA02F3D040C2F150
:1008F00020029140084319467047202A06DBCB1797
:10090000203A41FA02F043EAE07306E041FA02F3CA
:10091000D040C2F1200291400843194670470000C0
:100920000FB4002300B589B00CA900910B996FF0AA
:100930000042CB601E4B06931E4B07930423CDE968
:1009400001321D4A089202466B46002000F0B6F9BB
:1009500009B05DF814FB70B586B006464FF0FF3065
:100960000091CDE90101002015460C460490324665
:10097000694604A8FFF7D4FF02460498211825B160
:1009800008B1084600E020462860049800280DD0F1
:10099000002A02DD0098884208D0081B0094CDE9A7
:1009A00001043246694604A8FFF7BAFF06B070BDDD
:1009B000F50E0008130F0008810B00082DE9F04721
:1009C00091460F4680460446002614F8015B2DB17F
:1009D00000F0D2F80068405DC007F6D12B2D02D0A0
:1009E0002D2D18D0641E4A463946204600F0A2FA42
:1009F00027B13968A14201D1C7F8008071054FF0D5
:100A000002040BD54042002803DD01F0ADFB046079
:100A1000A007BDE8F08746F48066E4E70028F8DA2E
:100A200001F0A2FB04606FF00040F2E70029A8BFCC
:100A30007047401C490008BF20F00100704710B407
:100A4000B0FA80FC00FA0CF050EA010404BF10BCBC
:100A5000704749B1CCF1200421FA04F411FA0CF1E9
:100A600018BF012121430843A3EB0C01CB1D4FEA22
:100A700000614FEA102042BF002010BC704700EB1D
:100A8000C35010440029A4BF10BC7047401C49004B
:100A900008BF20F0010010BC704710B5141E73F1A0
:100AA000000408DA401C41F1000192185B411A432E
:100AB00001D120F0010010BD2DE9F04D92469B467A
:100AC00011B1B1FA81F202E0B0FA80F22032904620
:100AD000FFF7F4FE04460F4640EA0A0041EA0B0124
:100AE00053465A46084313D0114653EA010019D021
:100AF000C8F140025046FFF7F0FE05460E4650464C
:100B000059464246FFF7DAFE084305D0012004E0CB
:100B100020463946BDE8F08D0020054346EAE076E0
:100B20002C4337430A986305E40AA0EB080000222F
:100B3000FD0A44EA47540A3002D500200146E9E79D
:100B4000010510196941DDE9084500196941BDE851
:100B5000F04DA2E7064C074D06E0E06840F00103C7
:100B600094E8070098471034AC42F6D3FFF7E4FA54
:100B700034410008544100080048704720410008F3
:100B800010B50446FFF7F8FF0068005D00F00100B3
:100B900010BD00002DE9FF4F087883B09946FF286B
:100BA00005D0491C2D2804D00024002008E0002096
:100BB0000BE00124F9E700EB800003EB4000491C47
:100BC0000B78FF2BF7D104B1404200230293147835
:100BD00019461D462D2C01D02B2C04D1521C2D2C36
:100BE00013D000240294AA461478FF2C0FD00A25B3
:100BF000A3FB057801FB05814FF0000C03FB0C11F2
:100C0000521CE3194AEB0101EEE70124EAE78144B3
:100C100053EA010002D019F5C87F06DA03980021D3
:100C2000C0E9001107B0BDE8F08F0025AE4E2F4699
:100C3000DFF8B882184600F0DAF9CDE90001B9F121
:100C4000000002DAC9F1000400E004460023A74ACC
:100C50001AEB030B42EB045A12E0E00707D02A46D6
:100C6000334638464146FFF781FC074688462A4608
:100C7000334610461946FFF779FC05460E466410C8
:100C8000002CEAD1DDE90001B9F1000F5A465346C4
:100C900006DAFFF7DDFC3A464346FFF7D9FC05E0EC
:100CA000FFF764FC3A464346FFF760FC029A0AB13C
:100CB00081F00041039AC2E90001B3E72DE9FF4F3B
:100CC0001F468DB0D7E901464FF0FF382E2045462C
:100CD0004FF000090B90B9696D1C0E988847396A6E
:100CE000824688470028F6D1BAF1FF3F0AD024F4A3
:100CF000D064002E11DDBAF12B0F08D0BAF12D0F00
:100D00000BD102E0404611B08DE744F48064B9692C
:100D10006D1C0E9888478246761E6946600501D58F
:100D20002D2000E02B208DF8000001F1010B0DF1CA
:100D3000200809E0B9696D1C0E98884782460F9813
:100D400044F40074761E0560002E02DDBAF1300F07
:100D5000F0D00B998A453ED144F0800406E00F990B
:100D6000681CA9F1010944F400740860B9696D1C9C
:100D7000761E0E98884782463028F0D02BE00B99DB
:100D80008A4505D1200603D444F08004761E18E07D
:100D9000504601F037FA08B30DF11301761E44F402
:100DA00000748B4508D2AAF130000BF8010B200625
:100DB00007D5A9F1010003E0200602D409F10100E2
:100DC0008146A00502D50F99681C0860B9696D1CA1
:100DD0000E9888478246002ED1DC53E0002E51DD6C
:100DE000BAF1650F02D0BAF1450F4BD1A00549D534
:100DF000B9696D1C24F44074761E0E9888478246AB
:100E0000002E0CDD2B2804D0BAF12D0F07D144F4AD
:100E10008074B9696D1C0E9888478246761EE0057D
:100E200001D52D2100E02B2108F8011BCDF82C80E5
:100E300021E00DF12901761E44F4007488450CD29E
:100E4000AAF1300010F0FF0088F8000002D10B99E1
:100E5000884509D908F1010806E0E00501D52448D4
:100E600001E042F20F708146B9696D1C0E98884707
:100E700082460F980560002E04DD504601F0C2F94D
:100E80000028D6D1F9690E988847FF208BF800001A
:100E900088F800000020069007904B466A4608A993
:100EA00006A8FFF777FEA00502D46FF001002AE73D
:100EB00014F0240F0AD0E00714D1DDE906123868D7
:100EC000031D3B600068C0E900120BE0DDE906018C
:100ED000FFF7D8FC0146E00704D13868021D3A60EC
:100EE0000068016028460EE7000014400000F03F53
:100EF000F1D8FFFF426842B1016811F8013B23B10C
:100F0000521EC0E90012184670470121C160881EB8
:100F1000704742685AB1C368016843B983688B421D
:100F200005D0491E521CC0E90012002070474FF046
:100F3000FF3070472DE9F05F8246007800271546A4
:100F40008B460AF10104B946302801D09DB113E067
:100F500014F8010B0127782803D0582801D045B197
:100F60000AE00DB1102D07D10027102514F8010B50
:100F700002E0082500E00A250026B0460EE005FB49
:100F8000080005FB06F1012701EB10461FFA80F867
:100F9000B6F5803F00D3B94614F8010B294600F09E
:100FA00018F80028EBDABBF1000F05D00FB1641E72
:100FB00000E05446CBF80040B9F1000F06D001F034
:100FC000D3F802210160C81EBDE8F09F48EA064040
:100FD000FAE73A2800D2303820F02002412A01D323
:100FE000A2F13700884201D34FF0FF3070470EB5B1
:100FF00040F2334202920022CDE900221346FFF76D
:101000005BFD03B000BD70B58C1810F8015B15F0E6
:10101000070301D110F8013B2A1106D110F8012B6A
:1010200003E010F8016B01F8016B5B1EF9D12B078F
:1010300005D40023521E0DD401F8013BFAE710F845
:10104000013BCB1A921C03E013F8015B01F8015B32
:10105000521EF9D5A142D8D3002070BD10B5FFF7BC
:1010600085F802F043FE002010BD002904D08168FD
:1010700041F0010181607047816821F001018160C8
:101080007047014600208968490700D50120704754
:10109000C06C80B27047014600208968090700D5FE
:1010A0000120704710B542680E4B1A400C790B684E
:1010B00042EA04221343436082680B4B1A40D1E991
:1010C000024323434C7942EA440213438360C26AD9
:1010D00022F47002097C491EC9B242EA0151C16280
:1010E00010BD0000FFFEF0FFFDF7F1FF70B5072611
:1010F00009290AD9C568A1F10A0404EB4404A640F1
:10110000B543A3401D43C56007E0056901EB4104F9
:10111000A640B543A3401D4305611F23072A09D2FA
:10112000446B521E02EB820293409C4391400C435D
:10113000446370BD0D2A09D2046BD21F02EB8202F8
:1011400093409C4391400C43046370BDC46A0D3AC4
:1011500002EB820293409C4391400C43C46270BDF9
:10116000816841F0080181607047002904D08168DE
:1011700041F4A00181607047816821F4A001816081
:101180007047816841F0040181607047FEE700000C
:1011900010B5084A0121084800F03CF90548807A5A
:1011A000002805D005480068BDE8104002F051B89D
:1011B00010BD0000500100200064004030000020FD
:1011C0000A4A914202D1002181617047C1F31302A2
:1011D0008B0101D5C26070474B0101D50261704798
:1011E000090101D582607047426070477000F0309D
:1011F00010B50C4988420AD101214C06204600F066
:101200005DFC2046BDE81040002100F057BC0121E4
:101210008C06204600F052FC2046BDE8104000211C
:1012200000F04CBC00640040F0B5827A012191408E
:10123000304C226842F0010222602E4D1C352A6893
:101240008A432A602B4A067B0C322B4B002E14D18A
:1012500016688E4316604688C78846EA0746877A2E
:1012600003EBC707C7F840660688878846EA074643
:10127000877A03EBC707C7F84466067B012E14D1B3
:1012800016680E4316604288068842EA0642867A4D
:1012900003EBC606C6F84026C288868842EA0642A4
:1012A000867A03EBC603C3F84426124AC37A121D9A
:1012B0003BB113680B4313600E4A0389143223B108
:1012C00006E013688B431360F6E713688B431360E3
:1012D0000389012B02D113680B431360407B012863
:1012E00002D1286808432860206820F001002060AF
:1012F000F0BD00000066004000600040002A03D0FE
:1013000042690A434261704742698A4342617047B9
:1013100010B50022036823F002030360036843F062
:10132000010303604FF6FF7300E0521C4468E407BA
:1013300001D19A42F9D14268D2073ED08A79012A76
:101340003DD0026822F080020260CA79012A3BD0B7
:10135000026822F0400202600A7A012A39D002684B
:1013600022F0200202604A7A012A37D0026822F075
:10137000100202608A7A012A35D0026822F008023F
:101380000260CA7A012A33D0026822F004020260A5
:101390008A78CC78920742EA04620C7942EA0442E5
:1013A0004C79098842EA0452491E0A43C261016825
:1013B00021F001010160002120E0002010BD026841
:1013C00042F080020260C0E7026842F04002026020
:1013D000C2E7026842F020020260C4E7026842F0FD
:1013E00010020260C6E7026842F008020260C8E725
:1013F000026842F004020260CAE7491C4268D20750
:1014000001D09942F9D14068C00701D0002010BD39
:10141000012010BD10B500EB0113D3F8B04104F06A
:1014200004041472002C2CD0D3F8B041E4085460AA
:1014300003F5D8731C6804F0020454725C6804F06D
:101440000F0494725C68240AD4749C68D4729C68FB
:10145000240A14739C68240C54739C68240E94739F
:10146000DC68D473DC68240A1474DC68240C5474BB
:10147000DB681B0E937449B1016941F020010161E1
:1014800010BDD3F8B041640D1460D1E7C16841F0DC
:101490002001C16010BD000010B586B00C4642218D
:1014A0000191002102918DF80C108DF80D1001466C
:1014B00022460DF10F0001F011FD8DF80E4001A93B
:1014C000024800F015F806B010BD000000640040AE
:1014D00000218171C171017241728172C17281708A
:1014E000C170032101710221417101210180704706
:1014F00030B50246002093685B010AD49068000171
:1015000001D5012005E09068C00001D5022000E06F
:10151000042004283BD002EB0012D2F8803103F003
:101520000103C2F880310B7A93B3D2F880414D6841
:101530001C434B7A43EAC5031C43C2F880418B7AB3
:1015400003F00F038B7202F5C072536823F00F0390
:10155000536053688C7A23435360CB7A8C7B0D7B2A
:1015600043EA04634C7B240444EA05242343936048
:10157000CB7B8C7C43EA04634C7C097C240444EAE6
:1015800001210B43D360116841F00101116030BDAE
:10159000FFE7D2F880314C7A23430C8843EA445366
:1015A000C2F88031CBE7000070B58AB00121092074
:1015B00000F092FA0121480600F072FA4FF48070B0
:1015C000ADF8240003248DF8264048208DF827002C
:1015D000334D09A9284600F0B9F86915ADF8241073
:1015E00018218DF827108DF8264009A9284600F00B
:1015F000ADF801214FF4EA1000F0FCF815208DF849
:10160000200000248DF821408DF8224001258DF81E
:10161000235008A800F0F0F9224E3046FFF7E8FD0D
:1016200005A8FFF755FF8DF81B408DF81C408DF87D
:101630001A408DF81F408DF81D408DF81E40022085
:101640008DF8170009208DF8180004218DF8191065
:10165000ADF814108DF8164005A93046FFF758FE76
:101660008DF80E508DF80F408DF81050ADF80440F5
:10167000ADF80640ADF80840ADF80A40ADF80C50A2
:101680008DF8115001A8FFF7CFFD07493046FFF74D
:1016900097FD012210213046FFF730FE0AB070BDE1
:1016A000000C01400064004003000014704700007B
:1016B0007FB50121042000F00FFA0121084600F057
:1016C000EFF90121022000F0EBF9C320ADF80C0086
:1016D00004208DF80F0003A91A4800F037F8002005
:1016E000ADF80600ADF802004FF6FF71ADF804103A
:1016F000ADF800004FF080446946204600F000FC41
:1017000000231A460121204600F04DFB0E4D69468C
:10171000284600F0F5FB00231A460121284600F078
:1017200042FB0021204600F0E9FB0121204600F0A9
:1017300020FB0021284600F0E1FB0121284600F0B3
:1017400018FB7FBD00080140000400402DE9F04176
:101750000022CC7804F00F03E40601D58C782343F3
:101760000C784FF00F0714F0FF0F4FF0010C1CD056
:1017700005680CFA02F40E882640A64211D19600A4
:1017800007FA06F825EA080503FA06F848EA050507
:10179000CE78282E02D0482E02D002E0446100E02C
:1017A0000461521C082AE4D305600A88FF2A1ED966
:1017B0004568002202F108060CFA06F40E8826405D
:1017C000A64210D1960007FA06F825EA080503FAA2
:1017D00006F848EA0505CE78282E00D14461CE7877
:1017E000482E00D10461521C082AE3D34560BDE8AD
:1017F000F0810000F0B5154C002801DAE36900E043
:101800006368C0F30346420D120185B2C0F301576D
:101810009540032F07D0C2020CD50322B240934358
:1018200043F0706209E023F07062636823F0706334
:10183000636002E0AB4343F0706201B12A430028C9
:1018400001DAE261F0BD6260F0BD0000000001401D
:1018500038B50121042000F03FF90121082000F0F3
:101860003BF910208DF8030041F23004ADF8004040
:1018700003208DF8020069460B48FFF767FF4FF41D
:101880004040ADF8000069460848FFF75FFF064892
:101890000C3001682143016004480C30016841F4B8
:1018A0004041016038BD000000080140000C0140CB
:1018B000F0B589B00121042000F00EF901210820C3
:1018C00000F00AF90121C80200F006F90121042004
:1018D00000F0E6F84FF41060ADF8200018208DF805
:1018E000230003208DF8220008A93E48FFF72EFFB1
:1018F0000024ADF81640ADF8124040F2E730ADF8E4
:1019000014004726ADF81060374F04A9384600F0A0
:10191000F7FA19208DF81C0001258DF81F508DF85D
:101920001D408DF81E5007A800F066F801213846CA
:1019300000F01CFA01221146384600F04DFA6020F2
:10194000ADF80000ADF80840ADF80250ADF8064023
:101950006946384600F04AFA0821384600F08AFA0B
:10196000ADF806406946384600F08AFA0821384644
:1019700000F0BAFA0121384600F0ECF901213846AE
:1019800000F0F7F90121384600F0FFF94020ADF8EA
:10199000200008A91548FFF7D9FE44F62060ADF8ED
:1019A0001400ADF81060124C04A9204600F0A8FA0B
:1019B00040F2DC51ADF806106946204600F016FAF8
:1019C0000821204600F056FA0121204600F0C2F915
:1019D0000121204600F0CDF90121204600F0D5F983
:1019E00009B0F0BD00080140002C0140000C01408E
:1019F00000080040FEE7704770B50F23C27801264B
:101A00000178002A1ED0144A126802F4E062C2F57E
:101A1000E062120AC2F10404D3404578A5408278FE
:101A20001A402A43120101F1E02181F800240078D4
:101A300000F01F018E404009800000F1E020C0F856
:101A4000006170BD01F01F0086404809800000F170
:101A5000E020C0F8806170BD0CED00E00249084351
:101A600002490860704700000000FA050CED00E034
:101A7000034A516821F4404101435160704700001E
:101A800000100240054A002903D051690143516109
:101A90007047516981435161704700000010024056
:101AA000054A002903D0D1690143D1617047D1694A
:101AB0008143D1617047000000100240054A0029AF
:101AC00003D01169014311617047116981431161AC
:101AD0007047000000100240054A002903D09169B8
:101AE00001439161704791698143916170470000A2
:101AF0000010024010B5264A516801F00C01254B38
:101B0000002927D0042927D0082927D0036051684D
:101B100001F0F0010909204B5C5C0168E140416083
:101B2000546804F4E064240A1C5D21FA04F484601F
:101B3000546804F46054E40A1B5DD940C1605268E3
:101B400002F44042920B144B1B1F9A5CB1FBF2F162
:101B5000016110BD0360DAE70360D8E7516801F462
:101B60007011536803F48033022404EB914133B1C4
:101B700053689B0307D5094B59430160C7E7074BDF
:101B800059430160C3E7034B59430160BFE70000BD
:101B90000010024000127A001800002000093D00E9
:101BA000704700F001B800000CB5002201920092CD
:101BB0002748016841F4803101604FF4A063016857
:101BC00001F4003100910199491C0191009911B96A
:101BD00001999942F3D10168890302D5012100914D
:101BE00000E000920099012930D11A490A6842F0B8
:101BF00010020A600A6822F003020A600A6842F0D2
:101C000002020A604168416041684160416841F4F4
:101C100080614160416821F47C114160416841F478
:101C2000E8114160016841F080710160016889013B
:101C3000FCD5416821F003014160416841F0020197
:101C400041604168C1F381010229FAD10CBD000055
:101C5000001002400020024010B501F007F801F02A
:101C6000E7FDBDE8104001F00FB8000010B50F48C7
:101C7000016841F00101016041680D4A1140416075
:101C800001680C4A11400160016821F48021016063
:101C9000416821F4FE0141604FF41F018160FFF7AC
:101CA00080FF05494FF00060086010BD0010024041
:101CB0000000FFF8FFFFF6FE08ED00E070B5164CDF
:101CC0002088C00722D015490878401CC0B208708F
:101CD0000A281BD100220A704507A88C10490880E9
:101CE000104E3088104B1880B1F90000002800DC3D
:101CF00040420880B3F90000002800DC4042188010
:101D0000AA8432800948006801F0A3FA208820F0F4
:101D10000100208070BD0000102C01402800002030
:101D20008000002024040040820000202C000020BD
:101D30004FF08040018A018A21F001010182704741
:101D400003480188018821F00101018070470000EB
:101D500010040040002904D0018841F08001018076
:101D60007047018821F0800101807047C9430182DA
:101D70007047002904D0018841F0010101807047BB
:101D8000018821F0010101807047002905D030F859
:101D9000441F41F400410180704730F8441FC1F3F3
:101DA0000E010180704770B50589048B068C25F003
:101DB00007050D434FF6FC410C4040F201110C4366
:101DC00026F022064FF6FF7101EA03111143314359
:101DD00005810483018470BD002A03D082890A43EF
:101DE0008281704782898A438281704730B5028C34
:101DF00022F001020284028C8388048B24F0700498
:101E000024F003050C882C4322F002020D891543AF
:101E10004A882A43124DA8420BD0124DA84208D03E
:101E2000114DA84205D0114DA84202D0104DA84234
:101E30000FD122F008054A892A4322F004058A8836
:101E40002A4323F4807323F400738D891D43CB89C7
:101E50002B4383800483C9888186028430BD0000BF
:101E6000002C01400034014000400140004401408A
:101E700000480140028B22F008020A4302837047A7
:101E800070B5028C22F480520284058C8288838B88
:101E900023F4E04323F440760C884FF6FF7303EA03
:101EA0000424344325F400550E8903EA06362E43F4
:101EB0004D8803EA05353543094EB04202D0094E3C
:101EC000B04205D122F480468A8903EA8212324365
:101ED00082808483C988A0F84010058470BD00000A
:101EE000002C014000340140828B22F400624FF646
:101EF000FF7303EA01211143818370478184704796
:101F000030B502881B4C1C4DA0420DD0A8420BD00E
:101F1000B0F1804F08D0194B984205D0184B984229
:101F200002D0184B984203D122F070034A881A431A
:101F3000154B984206D0154B984203D022F44073BB
:101F4000CA881A4302808A8882850A880285A0424C
:101F50000AD0A84208D00E4A904205D00D4A9042BD
:101F600002D00D4A904201D1097A01860121818275
:101F700030BD0000002C014000340140000400404E
:101F800000080040000C0040001000400014004019
:101F900000400140004401400048014003480188DE
:101FA000018821F0200101807047000000380140C5
:101FB00030B587B001218803FFF78EFD0121042091
:101FC000FFF78AFD4FF40070ADF8180018208DF867
:101FD0001B0003208DF81A001D4C06A92046FFF7B0
:101FE000B5FB2115ADF8181004218DF81B1006A9BA
:101FF0002046FFF7ABFB4FF4E13002900C20ADF828
:1020000012000024ADF81040ADF80E40ADF80C40C1
:10201000ADF814400F4D02A9284600F045F82521DF
:102020008DF8041001218DF805108DF806408DF80B
:10203000071001A8FFF7E0FC012240F225512846D5
:1020400000F016F80121284600F006F807B030BD70
:102050000008014000380140002904D0818941F482
:10206000005181817047818921F40051818170473D
:1020700010B540F66A13C1F3421301F01F040121A9
:10208000A140012B07D0022B07D014303AB10268CF
:102090000A43026010BD0C30F8E71030F6E7026822
:1020A0008A43026010BD000030B585B004460D467D
:1020B000208A4CF6FF710840E98801432182A089FB
:1020C0004EF6F3110840A9882A8911436A89024310
:1020D0001143A181A08A4FF6FF410840A98901431D
:1020E000A1826846FFF706FD1D48844201D103988E
:1020F00000E00298A189090408D500EBC00101EBBA
:10210000001029684900B0FBF1F007E000EBC001C6
:1021100001EB001029688900B0FBF1F06422B0FBEC
:10212000F2F109010B096FF018056B4300EB830016
:10213000A3891D044FF0320307D503EBC000B0FBA9
:10214000F2F000F00700084306E003EB0010B0FBDC
:10215000F2F000F00F000843208105B030BD000010
:1021600000380140FEE70000004870474C010020A5
:1021700001480068704700004C010020002807D08B
:102180000F4910F0FF0F05D0C0B2085C401C70472B
:102190000020704710F47F4F04D0C0F30720085C84
:1021A0000930704710F47F0F04D0C0F30740085C7B
:1021B0001130704701EB1060007819307047000053
:1021C0007C3F000802E008C8121F08C1002AFAD1AB
:1021D00070477047002001E001C1121F002AFBD1A7
:1021E0007047000001490860704700004C01002062
:1021F00003480168814201D00120704700207047E8
:102200002801002030380A2801D201207047002020
:10221000704700002DE9FC411F46DDE90A65DDE954
:102220000831044604F11C00406000602434626000
:10223000A760E36021610A462321184600F075FE7D
:10224000D4E903014218D4E90101121F0D4B00F03B
:10225000EFFC2060A67666760020E061A562E5626C
:10226000606120766066A066243C00900190234661
:10227000054A214604F1540001F050FB0020BDE85E
:10228000FC81000061350008A537000810B5029CEC
:1022900024F0010444744162826200210163C3623C
:1022A00000EBC1021C3252601260491C0129F7DBAD
:1022B00010BD10B5002200EBC2011C31D1E9004372
:1022C0006360D1E90034236049600960521C012A2F
:1022D000F1DB10BD10B586B001210846FFF7D2FB37
:1022E00001214FF40170FFF7F7FB0420ADF8140053
:1022F00000248DF8174005A91B48FFF727FA009422
:102300008DF8044001208DF805004FF46021029102
:1023100003948DF81000154C69462046FEF7C2FE66
:102320004FF44040FFF7A4FB052301220221204681
:10233000FEF7DCFE01212046FEF797FE2046FEF761
:102340000FFF2046FEF7A7FE0028FAD12046FEF731
:1023500018FF2046FEF795FE0028FAD101212046FD
:10236000FEF703FF06B010BD000801400024014045
:1023700030B583B00446FFF7FBFE05460020CDE9EB
:102380000000024621466846FEF7E5FA2846FFF7B8
:1023900029FFDDE9000103B030BD00000126214D19
:1023A000214C2846FEF774FE618808446080092E9F
:1023B00031D96088FEF7DBF91C49FDF7E6FF6FF0C5
:1023C0000B01FEF720F8FEF71AFA4FF06632184BB1
:1023D000FEF7CCF8FEF756FAFEF711FA4FF033325B
:1023E000144BFEF7BDF80022134BFEF731F9002223
:1023F000124BFEF7BBF8FEF7E9F9C0B26070217826
:10240000884204D2207001210748FFF745F80020D8
:102410006080012601E0761CF6B2322001F09DF8C2
:10242000BFE7000000240140880000200000204198
:1024300066660A40333306400000D83F000059402A
:10244000DFF80491DFF80481414E424F424C434D86
:10245000DFF80CA14FF0FF3B5946D9F8000000F01F
:1024600018FF0028F8D13E480B380068492863D08F
:102470000CDC412856D04428EED15046FDF7EEFE44
:1024800000B2FEF76BF9A060A860E5E74D280AD01E
:102490005028E1D15046FDF7E1FE00B2FEF75EF9AB
:1024A00020602860D8E70020E06020616061E8607B
:1024B000286168615046FDF7D1FE00B2A8F800001F
:1024C000002810DD306840F010003060306820F0E7
:1024D00020003060386840F400403860386820F4EC
:1024E00080403860B8E714DA316841F0200131608B
:1024F000316821F010013160396841F48041396060
:10250000396821F400413960C0F10000A8F80000EA
:10251000A2E7306840F030003060386840F4404056
:10252000386099E75046FDF799FE0E4908800E483D
:10253000006800F08EFE8FE75046FFF719FFFEF7A8
:10254000A1F96060686087E7300000204C0000203F
:102550000C0801400C0C01405000002068000020D5
:102560005B0100204E000020340000201CB500F06C
:102570009BF90022114631A000F048FE324C206049
:102580000022114631A000F041FE60600022114699
:1025900030A000F03BFEA06000230A2202212FA001
:1025A00000F0E6FCE06000230A2201212DA000F0EB
:1025B000DFFC2E49086014250520CDE900054FF405
:1025C0008066334600222A492AA000F0A0FFA061BD
:1025D0000620CDE90005730000222A492AA000F058
:1025E00096FF20610720CDE90005334600222949E6
:1025F00029A000F08CFF60610820CDE9000533467A
:102600000022284928A000F082FFE061A06908B1FB
:1026100001F094F8206908B101F090F8606908B100
:1026200001F08CF8E06908B101F088F800F04AF98F
:1026300041F28834204600F090FFFBE7776865653B
:102640006C5F666C616700002C00002063616E5F48
:1026500072637600616E676C65000000737065657B
:102660006400000062617474657279008400002067
:102670004124000863616E5F7263765F74687265FF
:10268000616400006D3D0008776865656C5F74618A
:10269000736B0000193D0008736574416E676C65CB
:1026A000000000009D230008626174746572795F08
:1026B000636865636B00000010B500F0E7F8BDE8E3
:1026C0001040FFF753BF000030B5134C416822683B
:1026D000114402F1080388420DD04D885DB9656848
:1026E000A94208D0A5688D4200D1A0604D68456020
:1026F0004968851ACD508168114481420BD04D88BC
:10270000002D08D1A568854200D1A16044684C60C5
:102710004068891AC15030BD940000202DE9FF4F58
:10272000DDE90DB60F9D6C0602D5DFF814A103E0BC
:10273000DFF80CA1AAF1110AEC0601D525F001057C
:10274000EC0702D04FF0300901E04FF020090027DC
:10275000AC070BD5002A02DA2D27524206E06C079F
:1027600001D52B2702E02C0700D520270024EE46B8
:102770007AB9302201248DF800200CE00A2B15D004
:1027800002F00F081209A4461AF80880641C0EF81B
:102790000C80002AF2D1B44200DD2646ABEB0602E3
:1027A00015F0110F4FF0200309D016E04FF00A0C7E
:1027B000B2FBFCF80CFB1828B2FBFCF2E3E73FB1DC
:1027C000002A05DD521E03E0884200D80370401C39
:1027D000B2F1000CA2F10102F6DC27B1884201D867
:1027E0000770521E401CED0605D508E0884201D84E
:1027F00080F80090401C151EA2F10102F6DC302783
:1028000003E0884200D80770401C3546761EA5427A
:10281000F7DC05E0884202D81EF804500570401C21
:10282000251EA4F10104F5DC03E0884200D8037002
:10283000401C141EA2F10102F7DC04B0BDE8F08FC9
:102840008D4000081CB504211420CDE90010CB01F7
:102850000022044904A000F05AFEBDE81C4000F02C
:102860006DBF0000B92600086D61696E00000000B0
:1028700070B5044C044D02E020688047241DAC4232
:10288000FAD370BD284100082C41000870B5044CF3
:10289000044D02E020688047241DAC42FAD370BD8D
:1028A0002C4100083041000810B5FDF75FFC044AD8
:1028B0005188491C5180BDE81040FDF75BBC000009
:1028C0001C01002010B5FDF751FC094A5188491E32
:1028D00009B25180002907DC00215180FDF74AFC34
:1028E000BDE8104000F008BCBDE81040FDF742BC58
:1028F0001C01002070B5002833D01A4D2968884289
:102900002FD3696888422CD2A0F10C044FF0FF311C
:10291000154800F0BEFC60884FF4F55610B12088D1
:10292000B04208D011A000F009FA2388628821463D
:1029300015A000F003FA002060802680A868844279
:1029400000D2AC6029686068611A401A2969081AC7
:1029500028612046FFF7B8FEBDE87040024800F04D
:1029600078BC70BD9400002074430020746F206612
:102970007265652061206261642064617461206217
:102980006C6F636B3A0A00006D656D3A20307825F4
:102990003038782C207573656420666C61673A2046
:1029A00025642C206D6167696320636F64653A203C
:1029B0003078253034780A000048704764010020E0
:1029C000004870476441002010B519484FF47A71EF
:1029D0000068B0FBF1F0B0F1807F0CD220F07F41B5
:1029E0004FF0E020491E4161124AF0211170002190
:1029F0008161072101614FF44070FFF72FF8FEF766
:102A000057FFFEF725FFFEF753FEFFF7D1FAFEF75B
:102A1000CBFDFFF75FFCFFF72BFFFFF7D1FF04466D
:102A2000FFF7CAFF2146BDE8104000F0DDBC000002
:102A30000000002023ED00E07047000070B505465F
:102A40002C1D2B480168002903D028468847002800
:102A50004DD028A0E16B00F071F92AA0216A00F0A6
:102A60006DF92CA0616A00F069F92EA0A16A00F04E
:102A700065F930A0E16A00F061F932A0216800F048
:102A80005DF934A0616800F059F936A0A16800F042
:102A900055F938A0E16800F051F93AA0216900F039
:102AA0004DF93CA0616900F049F93EA0A16900F030
:102AB00045F940A0E16900F041F942A0216B00F026
:102AC0003DF944A0616B00F039F946A0A16B00F01C
:102AD00035F92878400706D500F00AFE014645A0E2
:102AE00000F02CF902E04BA000F028F9FEE770BDE1
:102AF0003C0100207073723A203078253038780A13
:102B0000000000007230303A203078253038780AE2
:102B1000000000007230313A203078253038780AD1
:102B2000000000007230323A203078253038780AC0
:102B3000000000007230333A203078253038780AAF
:102B4000000000007230343A203078253038780A9E
:102B5000000000007230353A203078253038780A8D
:102B6000000000007230363A203078253038780A7C
:102B7000000000007230373A203078253038780A6B
:102B8000000000007230383A203078253038780A5A
:102B9000000000007230393A203078253038780A49
:102BA000000000007231303A203078253038780A41
:102BB000000000007231313A203078253038780A30
:102BC000000000007231323A203078253038780A1F
:102BD00000000000206C723A203078253038780AE6
:102BE000000000002070633A203078253038780AE1
:102BF0000000000068617264206661756C74206F6B
:102C00006E207468726561643A2025730D0A0D0A9E
:102C10000000000068617264206661756C74206F4A
:102C20006E2068616E646C65720D0A0D0A0000000A
:102C300070B50646121D22F00700A0F14005284697
:102C40000022094C40F82240521C102AFAD301629B
:102C5000002141628162C1620163436386634FF078
:102C60008071C163284670BDEFBEADDE10B5FDF7C3
:102C70007DFA044A1178491C1170BDE81040FDF737
:102C800079BA00009000002010B5FDF76FFA044AF1
:102C90001178491E1170BDE81040FDF76BBA0000B5
:102CA0009000002010B500681C3800F003FD0020E3
:102CB00010BD70B505464FF0FF340AE0FDF756FA37
:102CC000064628681C38846300F0F4FC3046FDF7A3
:102CD00051FA284600F060F80028EFD0002070BDBF
:102CE0002DE9F04105460E461446304600F039FD08
:102CF00006F11C0714B1012C1DD104E03946284609
:102D000000F043F817E02C680DE0A4F11C0096F8E1
:102D10003D1090F83D20914204D239461C3000F01D
:102D200034F802E02468AC42EFD1AC4203D139461A
:102D3000284600F02AF80020BDE8F0810FB408B55D
:102D400003AB00937F210548029A00F07FFE034801
:102D5000FFF772FE01B05DF814FB0000F4420020A2
:102D60000268516002680A6001604860704702684A
:102D7000516002680A6001604860704702685160F3
:102D800002680A60016048607047426811604268EA
:102D90004A604160086070470168814201D10120AA
:102DA0007047002070470168814201D101207047BF
:102DB00000207047D0E900215160D0E90012116075
:102DC000406000607047D0E900215160D0E90012F6
:102DD00011604060006070472DE9F047002809D07D
:102DE000C01C20F003053B4EF068854204D900204A
:102DF000BDE8F0870020FBE70C2D00D20C254FF03A
:102E0000FF31354800F045FAB7683168781AD6F8CE
:102E10000CC0ACEB050356E00C1862888ABB6268F4
:102E2000121A0C3AAA424DD3626805F11803121A1D
:102E30000C3A4FF001094FF4F5589A4222D3431946
:102E40000C33CA18A2F800804FF0000AA2F802A0C2
:102E5000D4F804A0C2F804A090606360A4F80290C3
:102E600050680CF10C0C604502D001F1080283504F
:102E7000306928440C303061726982420ED2706130
:102E80000CE01FE0A4F802906068621A801A3269B0
:102E9000104430617269824200D27061A4F80080EF
:102EA000BC4203D008E040680844B060B068428883
:102EB00012B172689042F6D1074800F0CAF904F1E5
:102EC0000C0095E760688342A6D8034800F0C1F97A
:102ED00000208DE7940000207443002030B50346A5
:102EE000102A1ED301F0030403F003052C430BD07A
:102EF00017E00C681C604C685C608C689C60CC6857
:102F00001031DC601033103A102AF2D202E010C9FE
:102F100010C3121F042AFAD203E011F8014B03F880
:102F2000014B521E541CF8D130BD10B50346CCB233
:102F3000042A15D3810713D1014644EA042343EA46
:102F4000034305E00B604B608B60CB601031103A9F
:102F5000102AF7D201E008C1121F042AFBD20B4647
:102F6000E1B201E003F8011B521E541CFAD110BD5E
:102F70002DE9F0410D4616461F460146052000F09A
:102F80003FF80446200016D067741C304060006093
:102F9000ED1C4FF6FC7005402585B0B260852D1DF7
:102FA0006843FFF719FF606240B100222263626349
:102FB000A263002010E02046BDE8F081204600F02A
:102FC00011F80020F8E7218D636A091D00FB01312B
:102FD000A36B0B60A163401C618D8142F3DCA28571
:102FE0002046E9E710B5044604F11C00FFF761FE36
:102FF000606AFFF77FFC204600F027F8002010BD34
:103000002DE9F04106460F46304600F03DF80546F2
:10301000E868FFF7E1FE0446ACB126740020607456
:1030200010223946204600F0CBF9FDF79FF80646FE
:1030300004F11401281DFFF793FE3046FDF79AF8BE
:103040002046BDE8F0810020FBE770B50446FDF79F
:103050008DF8054604F11400FFF7ACFE2846FDF795
:1030600089F82046BDE87040FFF744BC70B50446BF
:10307000FDF77CF8054604F11400FFF79BFE284697
:10308000BDE87040FDF776B80021074A02EB011356
:103090001B78834202D102EB01107047491C0729BB
:1030A000F4DB002070470000AC0000202DE9F04167
:1030B00004460D4617462846FFF7E6FF064645F04C
:1030C0008000207410223946204600F079F9FDF77F
:1030D0004DF8054604F11401301DFFF741FE284666
:1030E000BDE8F041FDF746B8007C000601D501209F
:1030F000704700207047000070B5FDF737F80546AF
:10310000174C608820B12846BDE87040FDF732B802
:10311000A068FFF733F8421E124850F832101C39ED
:103120006068814216D0227061600F4A127842B105
:1031300024312430FDF721F82846BDE87040FDF722
:1031400019B824312430FDF718F82846BDE870403E
:10315000FDF710B82846BDE87040FDF70BB8000039
:103160001C0100209C4300209000002010B5044664
:10317000FCF7FCFF024614F83C0F20F00F00401C47
:10318000207060780A493C3C01EBC00104F11C004E
:103190004B6818604B684360486001600548216CCB
:1031A000836819438160BDE810401046FCF7E2BF18
:1031B0009C4300201C01002070B50546FCF7D6FF9B
:1031C000014605F11C04D4E900205060D4E9000256
:1031D00010606460246095F83D000A4A02EBC0006C
:1031E0000268824201D1012000E0002020B106489F
:1031F0002B6C82689A438260BDE870400846FCF7F9
:10320000B9BF00009C4300201C01002070B50C4693
:10321000154601460120FFF7F3FE002805D000F116
:103220001C01496009608484457470BD2DE9F0413A
:10323000054616461F460A4601212846FFF736FF77
:103240002C461C3464602460AE846F740020BDE89A
:10325000F0812DE9F04104460025FCF787FF064682
:1032600004F11C000746FFF797FD40B1A08C401CFD
:10327000A0843046FCF77EFF012D05D006E03846DD
:10328000FFF710FD0125F4E7FFF736FF0020BDE84A
:10329000F08173B50446FCF769FF0646A08C28B19F
:1032A000401EA0843046FCF765FF21E0019808B37A
:1032B00000F01EFA05460020A863627C294604F14E
:1032C0001C00FFF70DFD0198002809DD05F15400F1
:1032D00001AA0021044600F0F7FA204600F034FB72
:1032E0003046FCF747FFFFF707FFA86B002800D127
:1032F00000207CBD3046FCF73DFF6FF001007CBD37
:1033000008B509A0FFF71AFD0AA0FFF717FD12A0E4
:10331000032300900022194612A0FFF70FFDBDE81D
:10332000084018A0FFF70ABD0A205C207C202F0A65
:10333000000000002D205254202D20202020205459
:103340006872656164204F7065726174696E672090
:1033500053797374656D0A004A616E2031392032E9
:1033600030323200202F207C205C2020202020259D
:10337000642E25642E2564206275696C6420257393
:103380000A0000002032303036202D203230313813
:1033900020436F7079726967687420627920727453
:1033A0002D746872656164207465616D0A000000A7
:1033B000014600E0491C0A78002AFBD1081A704730
:1033C00010B5002A07D0034611F8014B03F8014B52
:1033D00014B1521EF8D110BD002101E003F8011B09
:1033E000521EFBD110BD000070B505460A46E81C10
:1033F00020F0030122F00303182B21D9A3F11804B4
:103400008C421DD3114C5A1A183AE26021604FF4D5
:10341000F5530B800C324A60002088604880486871
:103420000844606003800121418042608260002383
:10343000012207A10848FFF7F9FE2068A06070BDCF
:103440002946BDE8704005A0FFF778BC9400002035
:103450006865617000000000744300206D656D2098
:10346000696E69742C206572726F7220626567697B
:103470006E206164647265737320307825782C2027
:10348000616E6420656E642061646472657373208C
:10349000307825780A00000010B50A4B00245C80C3
:1034A0000020094A02EBC00149600960401C0C2859
:1034B000F8DB0B2018705C609C6002480C304060A8
:1034C000006010BD1C0100209C43002010B5074C7B
:1034D000A068FEF753FE401E054951F830001C3825
:1034E0006060BDE810402430FCF775BE1C01002070
:1034F0009C4300200020044A02EBC001496009609F
:10350000401C0028F8D070473401002070472DE996
:10351000FF478046DDE90C67894692461D464146D5
:103520000020FFF76DFD044620000FD02846FFF76E
:1035300053FC68B18DE8E10053464A4641462046B7
:10354000FEF768FE204604B0BDE8F0870020FAE7E9
:103550002046FFF77AFD0020F5E700F0CFB8000025
:1035600070B513480468FCF701FE05462046FFF7D6
:1035700023FE042084F83C0004F1540000F0BEF95E
:103580002046FFF7B1FD012802D1D4F8880058B1D8
:1035900004F11C010748FFF7EAFB2846FCF7EAFDA7
:1035A000BDE87040FFF7A8BD2046FFF75FFDF4E7D8
:1035B000200100202801002000F002F8FCE70000B4
:1035C00070B528E0FCF7D2FD0646FEF711FE70B399
:1035D00019480468A4F11C05D4E900104860D4E936
:1035E0000001086064602460FFF75EF9D5F8881078
:1035F00009B1284688472846FFF776FD01280FD0F5
:10360000FFF760F93046FCF7B5FD286BFFF772F95C
:103610002846FFF71AFDFEF7EBFD0028D2D170BD5A
:10362000FFF750F93046BDE87040FCF7A3BD3046C7
:10363000BDE87040FCF79EBD280100201FB520208A
:10364000C2000B21094BCDE90210CDE90032074839
:103650000023074A07A1903800F010F804B003488F
:10366000BDE81040903800F069B80000F441002037
:10367000B93500087469646C650000002DE9FF5FCE
:103680008146DDE90E76DDE91054884692469B4678
:10369000424600214846FFF709FDCDE90076CDE915
:1036A00002545B46524641464846FEF7B3FD04B01D
:1036B000BDE8F09F70B5044694F83C0000F00F00A0
:1036C000022802D04FF0FF3070BDFCF74FFD0546D9
:1036D00004F11C00FFF777FB04F1540000F09EF9A1
:1036E0002846FCF747FD2046FFF740FD002070BD4F
:1036F000014800687047000020010020F1B5FCF788
:1037000035FD05460C480468204600F02AF804F10F
:1037100054006A460021064600F0D6F8304600F014
:1037200013F92846FCF726FDFFF7E6FCA06B801C8A
:1037300000D1A0630020F8BD2001002010B53C306E
:103740008178417001228A404260022100F83C19D0
:10375000FFF7B0FFFFF7CCFF08B1FFF7CDFC00206B
:1037600010BD70B5044694F83C0000F00F0001282D
:1037700002D04FF0FF3070BDFCF7F8FC054694F81E
:103780003C0020F00F00801C84F83C002046FFF72E
:1037900013FD04F1540000F041F92846FCF7EAFC5F
:1037A000002070BD10B504466FF00100A06304F165
:1037B0001C00FFF708FB2046FFF7D8FCBDE81040CF
:1037C000FFF79ABC70B5FCF7D1FC064613480468B5
:1037D00094F83C0000F00F0001281AD1D4E9070149
:1037E000884216D004F11C000546FFF7ECFA94F865
:1037F0003D000B4901EBC00041680D604168696004
:10380000456028603046FCF7B5FCFFF775FC0020EA
:1038100070BD3046FCF7AEFC002070BD20010020DA
:103820009C43002001480068704700008C00002085
:1038300010B509490868401C0860FFF759FF016D81
:10384000491E016519B9C16C0165FFF7BBFFBDE8F1
:10385000104000F003B800008C00002070B5FFF7A6
:10386000E1FF0646FCF782FC054620E015480468A7
:103870001C3C6FF00041206B301A88421CD220465D
:10388000FEF717FDD4E909108847FFF7CBFF06467E
:10389000607C810708D5C10706D020F00100607464
:1038A000204600F051F802E020F001006074054865
:1038B000FFF779FA0028D9D02846BDE87040FCF718
:1038C00059BC000034010020002909D0012904D08E
:1038D000022908D003290FD10AE0C06A10600BE06A
:1038E0001168C16208E0417C21F00201417403E0EB
:1038F000417C41F0020141740020704770B50546DB
:10390000FCF734FC04462846FEF7D3FC2046FCF7BF
:1039100031FC2846FFF7AAFB002070BD2DE9F843D3
:103920000746DDE9088415461E460A460921384641
:10393000FFF7BCFB43463246294638460094FEF763
:10394000A5FCBDE8F88300002DE9F8430446FCF728
:103950000DFC05462046FEF7ACFC607C20F0010023
:1039600060742846FCF706FCFFF75CFFE16A084438
:103970002063FCF7FBFB0746DFF89CC0CDF800C0D6
:1039800000226E460CEBC20045680DE00068A0EB1B
:10399000C201236B4969994204D0C91A6FF00043F0
:1039A000994205D346F8220056F82200A842EDD1EC
:1039B0002AB156F822100831531C46F82310521C25
:1039C000002ADFD01448001FD0F8008008F1010859
:1039D000C0F8008004F11C010098FFF7CFF9022520
:1039E0000EE05FEA88700DD1C5F1010004EBC00163
:1039F0001C3156F82000FFF7C1F94FEA98086D1CFA
:103A0000012DEED9607C40F0010060743846FCF76F
:103A1000B1FB0020BDE8F8833401002070B50446F6
:103A2000607CC0070ED0FCF7A1FB05462046FEF7E0
:103A300040FC2846FCF79EFB607C20F0010060748F
:103A4000002070BD4FF0FF3070BD00002DE9FF4F2A
:103A500083B082460AEB01077F1E5446A74201D27B
:103A60004FF0FF374FF020094FF0250B12E12528CA
:103A700004D0BC4200D82070641C08E100250599E0
:103A8000491C059108782D2814D02B2815D0202802
:103A900016D0232817D0302818D04FF0FF384646CC
:103AA000059A1278303A0A2A13D205A800F04AF98A
:103AB00006461AE045F01005E1E745F00405DEE7AB
:103AC00045F00805DBE745F02005D8E745F001059E
:103AD000D5E72A2809D1491C0591069840C80690C7
:103AE000002E02DA764245F01005059801782E295D
:103AF00018D1401C05900178A1F130020A2A04D2A5
:103B000005A800F01FF9804607E02A2905D1401CCE
:103B10000590069850F8048B0690B8F1000F01DA72
:103B20004FF000080021059A1078682801D06C2811
:103B300002D10146521C05920A23059800786F288D
:103B400071D00CDC632820D004DC25286CD05828E8
:103B50000DD187E0642801D0692808D186E070285B
:103B600063D073282FD0752871D078287CD0BC42C0
:103B700001D884F800B0641C05990878002868D042
:103B8000BC4200D82070641C81E0E80605D507E03F
:103B9000BC4201D884F80090641C761E002EF7DC2D
:103BA000069810F8041B0690C8B2BC4200D82070DA
:103BB000641C04E0BC4201D884F80090641C761EAA
:103BC000002EF7DC63E0069808C8069003B941A30D
:103BD0001846FFF7EDFBB8F1000F02DD404500DDB0
:103BE0004046E90605D508E0BC4201D884F80090BB
:103BF000641C3146761E8142F6DC002106E0BC42A0
:103C000001D81A782270641C5B1C491C8142F6DBC7
:103C100004E0BC4201D884F80090641C3146761E52
:103C20008142F6DC33E01BE014E0701C02D1082670
:103C300045F00105CDE9006806980295102304C8F7
:103C4000069039462046FEF769FD04461FE00FE066
:103C50000AE028E0BC4201D884F800B0641C16E0F9
:103C6000082305E045F04005102301E045F002057A
:103C70006C291BD068291DD0069804C80690CDE990
:103C80000068394620460295FEF748FD044605982F
:103C9000401C05900598007800287FF4E8AEBC42EF
:103CA00011D8207010E0491E0591F0E7069804C86D
:103CB0000690E4E7069830F8041B06908AB2A8073D
:103CC000DDD512B2DBE7387007B0A4EB0A00BDE81F
:103CD000F08F0000284E554C4C2900000020704702
:103CE00000207047002070470020704710B5FCF797
:103CF0003DFAFEF769FEFFF703FBFFF7FBFBFFF75B
:103D0000CBFBFEF79FFDFFF701FCFFF797FCFFF7EA
:103D1000DDFB002010BD0000074D084E4FF0FF37BF
:103D2000074C01E06888308039462068FFF7B1FA17
:103D30000028F9D1F6E700004C00002034080040CC
:103D40003400002010B5024600206FF02F0407E079
:103D50004B1C1360097800EB800004EB4000084422
:103D600011680B78303B0A2BF2D310BD08B54FF029
:103D7000000AD346784F79484FF0FF310068FFF7CB
:103D800088FA0028F7D17648B0F90000FCF7F4FC77
:103D9000744A754BFCF7EAFB0022744BFCF7E6FB18
:103DA000FCF770FD0546DFF8B081A8F10408B8F90A
:103DB00000008146FCF7D2FC2946FCF7AEFA064625
:103DC000386159462846FCF7A8FA0090AB464846A9
:103DD000FCF7D2FC4FF0FF32FCF7A9FC04460D467D
:103DE0003046FCF70CFD22462B46FCF733FD11D381
:103DF000B8F90000FCF7C0FC00225D4BFCF7B6FBF5
:103E000004460D463869FCF7FAFC22462B46FCF7BF
:103E100009FD02D23C68002507E04FF07E54D7E947
:103E20000410FCF728FA78610546B8680099FCF799
:103E30007AFA064629467868FCF775FA0546204660
:103E40003969FCF770FA2946FCF715FA3146FCF798
:103E500012FAFCF7A2FC00B2002802DD45490880F6
:103E600002E04449002008804348B0F90000FCF714
:103E700083FC3C4A3C4BFCF779FB00223B4BFCF7B4
:103E800075FBFCF7FFFC0446B8F900000546FCF79B
:103E900065FC2146FCF741FA2F4E81461836306109
:103EA00051462046FCF739FA0090A2462846FCF716
:103EB00063FC4FF0FF32FCF73AFC04460D464846DF
:103EC000FCF79DFC22462B46FCF7C4FC11D3B8F945
:103ED0000000FCF751FC0022254BFCF747FB044691
:103EE0000D463069FCF78BFC22462B46FCF79AFC0A
:103EF00002D23568002407E04FF07E55D6E9041061
:103F0000FCF7B9F970610446B0680099FCF70BFA48
:103F1000804621467068FCF706FAD6F810900446F1
:103F200049462846FCF7FFF92146FCF7A4F941462B
:103F3000FCF7A1F9FCF731FC00B2002803DD0D49C4
:103F40000C31088003E00B4900200C310880C6F8D2
:103F50000C903869F8600EE7500000202C0000201B
:103F600082000020728A8EE4F21F9A3F00005940BE
:103F70000000E0BF342C0140800000200000010060
:103F80000200010003000100020001000400010022
:103F90000200010003000100020001000500010011
:103FA0000200010003000100020001000400010002
:103FB00002000100030001000200010006000100F0
:103FC00002000100030001000200010004000100E2
:103FD00002000100030001000200010005000100D1
:103FE00002000100030001000200010004000100C2
:103FF00002000100030001000200010007000100AF
:1040000002000100030001000200010004000100A1
:104010000200010003000100020001000500010090
:104020000200010003000100020001000400010081
:10403000020001000300010002000100060001006F
:104040000200010003000100020001000400010061
:104050000200010003000100020001000500010050
:104060000200010003000100020001000400010041
:104070000200010003000100020001003031323370
:104080003435363738396162636465660030313201
:1040900033343536373839414243444546000040D1
:1040A000404040404040404041414141414040400B
:1040B000404040404040404040404040404040053B
:1040C00002020202020202020202020202020220B2
:1040D00020202020202020202002020202020202B2
:1040E00090909090909010101010101010101010D0
:1040F0001010101010101010101002020202020214
:10410000888888888888080808080808080808082F
:104110000808080808080808080802020202400007
:104120009F400008E93C0008E13C0008DD3C000835
:10413000E53C000854410008000000205001000048
:1041400006100008B841000850010020B0460000E9
:10415000D42100081184A24A04680D010203040658
:1041600007080902040608106914012A33C842220C
:104170003F0B24A040186102276422B02A20042AA1
:1041800090A0311AC00C2904322832021AD00C290E
:1041900004322C32031AE00C2904292029E91AF0F0
:1041A0000C290432383A05E5112A2004323C29E56D
:0841B0001A100C290402373437
:0400000508000131BD
:00000001FF
