:020000040800F2
:10000000C047002049010008C5110008130200087C
:10001000C1110008B7080008151A00080000000008
:100020000000000000000000000000008113000834
:10003000A90D0008000000009B0100086D140008D5
:100040006301000863010008630100086301000800
:1000500063010008630100086301000863010008F0
:1000600063010008630100086301000863010008E0
:1000700063010008630100086301000863010008D0
:1000800063010008630100086301000863010008C0
:1000900063010008BD08000863010008630100084F
:1000A00063010008DD140008630100086301000813
:1000B0005115000869150008630100086301000874
:1000C0006301000863010008630100086301000880
:1000D00063010008151800086301000863010008A7
:1000E0006301000863010008630100086301000860
:1000F0006301000863010008630100086301000850
:10010000630100086301000863010008630100083F
:10011000630100086301000863010008630100082F
:10012000630100086301000863010008630100081F
:10013000DFF810D000F0FAFA00480047A9080008DC
:10014000AFF30080C04700200648804706480047BC
:10015000FEE7FEE7FEE7FEE7FEE7FEE7FEE7FEE777
:10016000FEE7FEE77D14000831010008EFF3108080
:1001700072B6704780F310887047324A1368012BBB
:1001800004D04FF0010313602F4A10602F4A116012
:100190002F484FF0805101607047EFF3108272B624
:1001A0002848016891B14FF00001016026480168BC
:1001B00029B1EFF3098121E9F00F006801602349BB
:1001C00009680968B1E8F00F81F3098882F31088A3
:1001D0004EF0040E70471D4908601B494FF00000A7
:1001E000086018494FF0010008601A484FF47F0179
:1001F000D0F8002041EA0201016015484FF080511B
:10020000016015480068006880F3088861B662B62E
:1002100070471EF0040F14BFEFF30880EFF309805E
:1002200020E9F00F40F804ED14BF80F3088880F354
:10023000098800B502F060F85DF804EB4EF0040E9A
:100240007047000040010020380100203C010020E0
:1002500004ED00E020ED00E008ED00E070B506469A
:1002600001F0DAFB046805460A220021304600F05E
:1002700091F92C6070BDF0B480EA0102D40F420005
:10028000B2EB410F02D20246084611464A0042D064
:10029000C30DDDB2C1F3C752AD1A202D35DAC1F35B
:1002A000160141F4000204B15242C5F1200602FADF
:1002B00006F12A411044B3EBD05F23D0C4B1012D25
:1002C000A0EBC35009DCF0BC4FF0004202EAC3527D
:1002D000DBB200F5000000F09EB9400000F1807034
:1002E00000EBC350A0F1807040EAD170490009E0F2
:1002F000490841EAC071A0EBC35000F50000400876
:1003000000EBC350F0BC00F07DB96142012202EB6A
:100310004101001BF6E7F0BC704781F00041AAE7FD
:1003200080F00040A7E780EA010210B502F0004328
:10033000400022D04A001FD0010E01EB1261C0F331
:100340005600C2F3560240F4000042F40002A0FB43
:10035000022000047F39140400D0401C50EA1240EF
:1003600001D44000491EC2B20C0604EBD010401C60
:100370004008802A02D003E0002010BD20F00100D8
:10038000002900DA0020184310BD2DE9FE4F81EA54
:10039000030404F0004421F0004100944FF0000BEE
:1003A00023F0004350EA01045ED052EA03045BD01C
:1003B000C3F30A54C1F30A552C44A4F2F334019454
:1003C000A0FB0254C1F3130141F48011C3F31303E2
:1003D00043F4801301FB024400FB034E840A970A96
:1003E00044EA815447EA8357A4FB076802958D0AC3
:1003F00005FB07854FEA932C04FB0C542705029D4F
:100400004FEA065847EA1637B5EB08056EEB070CBE
:10041000870E920E47EA811742EA8312A7FB020178
:10042000B6EB0B0164EB00042B0D43EA0C335E18B2
:1004300044EB1C50DA465146E7FB0201C5F31304B6
:100440004FEA0B3343EA14534FEA0432019C43EA68
:100450000603A4F10C040294009CCDE900B400F062
:1004600017F903B0BDE8F08F00200146F9E7C10F8E
:1004700080EAE0700844CA079623002100F0CBB858
:100480000EB5C10F80EAE0700844CA07002140F2AF
:1004900033438DE80E000A460B4600F0F9F803B02E
:1004A00000BD00F0004220F00040C10DC0F3160076
:1004B00040F400007F2901DA00207047962903DC10
:1004C000C1F19601C84001E096398840002AF4D075
:1004D0004042704700F0004230F000400AD0C10DA9
:1004E00001F56071C0F3160042EA0151C2084007ED
:1004F00011437047002001467047000030B5041ECC
:1005000071F1000404DB4FF00044404264EB010150
:10051000141E73F1000405DB1C464FF000435242E9
:1005200063EB04038B4208BF824230BD30B5041E2A
:1005300071F1000404DB4FF00044404264EB010120
:10054000141E73F1000405DB1C464FF000435242B9
:1005500063EB0403994208BF904230BD01F00043B1
:1005600030B421F0004150EA010206D00A0DA2F594
:100570006072C1F31301002A02DC30BC0020704716
:10058000440F44EAC104C100E01830BC00EBC25083
:1005900000F038B82DE9F04791460F4680460446F2
:1005A000002614F8015B2DB100F0F2F80068405D00
:1005B000C007F6D12B2D02D02D2D18D0641E4A462F
:1005C0003946204600F0E8F827B13968A14201D148
:1005D000C7F8008071054FF002040BD54042002897
:1005E00003DD01F019FA0460A007BDE8F08746F4C6
:1005F0008066E4E70028F8DA01F00EFA04606FF094
:100600000040F2E70029A8BF7047401C490008BF1E
:1006100020F00100704710B4B0FA80FC00FA0CF032
:1006200050EA010404BF10BC704749B1CCF120046A
:1006300021FA04F411FA0CF118BF012121430843F7
:10064000A3EB0C01CB1D4FEA00614FEA102042BF23
:10065000002010BC704700EBC35010440029A4BF19
:1006600010BC7047401C490008BF20F0010010BCBE
:10067000704710B5141E73F1000408DA401C41F1F4
:10068000000192185B411A4301D120F0010010BD16
:100690002DE9F04D92469B4611B1B1FA81F202E08C
:1006A000B0FA80F22032904600F052F804460F462D
:1006B00040EA0A0041EA0B0153465A46084313D068
:1006C000114653EA010019D0C8F14002504600F02B
:1006D0004EF805460E4650465946424600F038F858
:1006E000084305D0012004E020463946BDE8F08DDE
:1006F0000020054346EAE0762C4337430A98630519
:10070000E40AA0EB08000022FD0A44EA47540A303C
:1007100002D500200146E9E7010510196941DDE92C
:10072000084500196941BDE8F04DA2E7064C074DA8
:1007300006E0E06840F0010394E8070098471034B1
:10074000AC42F6D3FFF7F8FCEC3C00080C3D000887
:10075000202A04DB203A00FA02F100207047914081
:10076000C2F1200320FA03F3194390407047202A76
:1007700004DB203A21FA02F00021704721FA02F34B
:10078000D040C2F120029140084319467047000052
:1007900000487047D83C00082DE9F05F8246007899
:1007A000002715468B460AF10104B946302801D0CE
:1007B0009DB113E014F8010B0127782803D05828C5
:1007C00001D045B10AE00DB1102D07D10027102549
:1007D00014F8010B02E0082500E00A250026B046C7
:1007E0000EE005FB080005FB06F1012701EB1046B2
:1007F0001FFA80F8B6F5803F00D3B94614F8010B14
:10080000294600F018F80028EBDABBF1000F05D0FC
:100810000FB1641E00E05446CBF80040B9F1000F60
:1008200006D001F0F9F802210160C81EBDE8F09F72
:1008300048EA0640FAE73A2800D2303820F0200291
:10084000412A01D3A2F13700884201D34FF0FF3093
:10085000704770B58C1810F8015B15F0070301D1D3
:1008600010F8013B2A1106D110F8012B03E010F813
:10087000016B01F8016B5B1EF9D12B0705D4002336
:10088000521E0DD401F8013BFAE710F8013BCB1AD8
:10089000921C03E013F8015B01F8015B521EF9D5CD
:1008A000A142D8D3002070BD10B5FFF75FFC02F065
:1008B00097FF002010BD00BFFEE7000010B5064AFC
:1008C0000121064800F05DF90348807A18B1044818
:1008D000006802F081F910BD4C0100200064004066
:1008E0003000002000220C4B994202D1002383618A
:1008F00011E0C1F3130201F000730BB1C2600AE012
:1009000001F080630BB1026105E001F000630BB1FF
:10091000826000E0426070477000F03010B504461D
:100920000B48844209D10121480600F09FFC0021B8
:100930004FF0007000F09AFC08E00121880600F0FA
:1009400095FC00214FF0806000F090FC10BD00008D
:100950000064004010B50021837A012202FA03F1FD
:100960003D4A126842F001023B4B1A603A4A1C327F
:1009700012688A43384B1C331A60027BCAB9364A64
:100980000C3212688A43344B0C331A604288C38895
:1009900042EA0343304A4032847A42F834300288D3
:1009A000838842EA03432C4A4032847A02EBC40231
:1009B0005360027B012A19D1274A0C3212680A437C
:1009C000254B0C331A604288038842EA0343224ACB
:1009D0004032847A42F83430C288838842EA034342
:1009E0001D4A4032847A02EBC4025360C27A3AB99B
:1009F000194A121D12688A43174B1B1D1A6006E024
:100A0000154A121D12680A43134B1B1D1A600289F6
:100A100032B9114A143212688A430F4B14331A60E8
:100A20000289012A06D10C4A143212680A430A4B81
:100A300014331A60427B012A06D1074A1C3212681D
:100A40000A43054B1C331A60034A126822F0010264
:100A5000014B1A6010BD0000006600401AB14369E6
:100A60000B43436102E043698B434361704730B5F8
:100A7000024600200023146824F002041460146865
:100A800044F00104146000E05B1C546804F00104AD
:100A90001CB94FF6FF74A342F6D1546804F0010468
:100AA0000CB900206CE08C79012C04D1146844F05E
:100AB0008004146003E0146824F080041460CC798E
:100AC000012C04D1146844F04004146003E014685D
:100AD00024F0400414600C7A012C04D1146844F012
:100AE0002004146003E0146824F0200414604C7A9D
:100AF000012C04D1146844F01004146003E014685D
:100B000024F0100414608C7A012C04D1146844F091
:100B10000804146003E0146824F008041460CC7A1C
:100B2000012C04D1146844F00404146003E0146838
:100B300024F0040414608C78A407CD7844EA05649A
:100B40000D7944EA05444D7944EA05540D886D1E3B
:100B50002C43D461146824F001041460002300E0E5
:100B60005B1C546804F001041CB14FF6FF74A342EF
:100B7000F6D1546804F001040CB1002000E001201B
:100B800030BD10B500F5D87303EB01131B6803F0FB
:100B900004031372137A53B900F5D87303EB0113EE
:100BA0001B6840F2FF7404EA5353136009E000F538
:100BB000D87303EB01131B686FF0604404EAD3039E
:100BC000536000F5D87303EB01131B6803F00203B5
:100BD000537200F5D87303EB01135B6803F00F0346
:100BE000937200F5D87303EB01135B681B0AD3748F
:100BF00000F5D87303EB01139B68D37200F5D8732B
:100C000003EB01139B681C0A147300F5D87303EB04
:100C100001139B681C0C547300F5D87303EB01138C
:100C20009B681B0E937300F5D87303EB0113DB680D
:100C3000D37300F5D87303EB0113DB681C0A14743B
:100C400000F5D87303EB0113DB681C0C547400F53A
:100C5000D87303EB0113DB681B0E937421B9C368CF
:100C600043F02003C36003E0036943F02003036102
:100C700010BD00218171C171017241728172C17216
:100C80008170C17003210171022141710121018034
:100C90007047000000B589B00121092000F0F6FA84
:100CA0000121480600F0D2FA4FF48070ADF8200020
:100CB00003208DF8220048208DF8230008A937482A
:100CC00000F0C2F84FF40070ADF8200018208DF845
:100CD000230003208DF8220008A9304800F0B4F862
:100CE00001214FF4EA1000F03BF915208DF81C00AB
:100CF00000208DF81D008DF81E0001208DF81F00CA
:100D000007A800F061FA2648FFF708FE04A8FFF7DD
:100D1000B0FF00208DF817008DF818008DF8160030
:100D20008DF81B008DF819008DF81A0002208DF83F
:100D3000130009208DF8140004208DF81500ADF87B
:100D4000100000208DF8120004A91548FFF78FFE4F
:100D500001208DF80A0000208DF80B0001208DF88D
:100D60000C000020ADF80000ADF80200ADF8040062
:100D7000ADF806000120ADF808008DF80D006846BA
:100D8000FFF7E8FD07490648FFF7ACFD01221021F7
:100D90000348FFF763FE09B000BD0000000C0140EE
:100DA0000064004003000014704700001FB50121DB
:100DB000042000F06BFA0121084600F047FA0121F7
:100DC000022000F043FAC320ADF80C0004208DF897
:100DD0000F0003A91A4800F037F80020ADF806000C
:100DE000ADF802004FF6FF70ADF804000020ADF83A
:100DF000000069464FF0804000F0BAFC00231A461C
:100E00000121880700F0E6FB69460E4800F0B0FCBF
:100E100000231A4601210B4800F0DCFB00214FF0B3
:100E2000804000F0A2FC0121880700F0B8FB0021FF
:100E3000044800F09AFC0121024800F0B0FB1FBDFD
:100E400000080140000400402DE9F0410246002561
:100E50000026002000230024002791F803C00CF096
:100E60000F0591F803C00CF0100CBCF1000F03D07B
:100E700091F802C04CEA050591F800C0BCF1000FE2
:100E800031D0146800202BE04FF0010C0CFA00F375
:100E9000B1F800C00CEA03069E4220D183004FF057
:100EA0000F0C0CFA03F7BC4305FA03FC4CEA0404EC
:100EB00091F803C0BCF1280F06D14FF0010C0CFAD9
:100EC00000FCC2F814C00AE091F803C0BCF1480F5E
:100ED00005D14FF0010C0CFA00FCC2F810C0401C08
:100EE0000828D1D31460B1F800C0BCF1FF0F34DD85
:100EF000546800202EE000F1080C4FF0010808FAB9
:100F00000CF3B1F800C00CEA03069E4221D1830025
:100F10004FF00F0C0CFA03F7BC4305FA03FC4CEA44
:100F2000040491F803C0BCF1280F05D100F1080CAE
:100F300008FA0CF8C2F8148091F803C0BCF1480F0D
:100F400007D100F1080C4FF0010808FA0CF8C2F8BC
:100F50001080401C0828CED35460BDE8F08100000A
:100F6000F0B50A46002300240021002500F00046C9
:100F7000B6F1004F02D11D4EF16901E01B4E7168C0
:100F8000C0F3034583B200F44016B6F5401F08D104
:100F900021F07061154E766826F07066134F7E6002
:100FA00012E000F48016B6F5801F06D1032606FA7B
:100FB00005F4A14341F0706106E0460D360103FAE5
:100FC00006F6B14341F0706122B1460D360103FAD5
:100FD00006F6314300F00046B6F1004F02D1034E51
:100FE000F16101E0014E7160F0BD000000000140C0
:100FF0000246002093680B400BB1012000E0002066
:101000007047000008B50121042000F03FF90121DC
:10101000082000F03BF910208DF8030041F2300069
:10102000ADF8000003208DF8020069460E48FFF776
:101030000BFF4FF44040ADF8000069460B48FFF746
:1010400003FF09480C30006841F2300108430649AB
:101050000C31086005480C30006840F440400349FA
:101060000C31086008BD000000080140000C014080
:1010700000B589B00121042000F008F90121082001
:1010800000F004F90121C80200F000F90121042058
:1010900000F0DCF84FF41060ADF8200018208DF857
:1010A000230003208DF8220008A94148FFF7CCFE59
:1010B0000020ADF81600ADF8120040F2E730ADF8B0
:1010C00014004720ADF8100004A93A4800F050FB86
:1010D00019208DF81C0001208DF81F0000208DF8CC
:1010E0001D0001208DF81E0007A800F06DF80121F9
:1010F000304800F051FA012211462E4800F08BFAD8
:101100006020ADF800000020ADF808000120ADF827
:1011100002000020ADF806006946264800F084FA77
:101120000821244800F0CCFA0020ADF806006946FA
:10113000204800F0CFFA08211E4800F009FB0121E9
:101140001C4800F01DFA01211A4800F028FA01217C
:10115000184800F030FA4020ADF8200008A91648E1
:10116000FFF772FE44F62060ADF814004720ADF89A
:10117000100004A9114800F0FBFA40F2DC50ADF871
:10118000060069460D4800F04FFA08210B4800F0B0
:1011900097FA0121094800F0F3F90121074800F00E
:1011A000FEF90121054800F006FA09B000BD000073
:1011B00000080140002C0140000C014000080040E4
:1011C00000BFFEE77047000070B5002100230F222A
:1011D000C47804B3154C246804F4E064C4F5E064F6
:1011E000210AC1F10403CA40447804FA03F1847867
:1011F0001440214309010E4C0678A155047804F0EF
:101200001F050124AC4005786D11AD0005F1E02506
:10121000C5F8004109E0047804F01F050124AC4042
:10122000044D0678761145F8264070BD0CED00E0BF
:1012300000E400E080E100E002490143024A11605D
:10124000704700000000FA050CED00E029B1064AE5
:10125000D2690243044BDA6104E0034AD269824353
:10126000014BDA61704700000010024029B1064AC4
:1012700012690243044B1A6104E0034A1269824373
:10128000014B1A61704700000010024029B1064A64
:1012900092690243044B9A6104E0034A92698243D3
:1012A000014B9A61704700000010024030B50021E8
:1012B0000022002400232D4D6D6805F00C0121B1A2
:1012C000042905D0082923D105E0294D056022E035
:1012D000274D05601FE0254D6D6805F47012234D04
:1012E0006D6805F48034022505EB92421CB9214D4E
:1012F000554305600BE01D4D6D6805F400351DB1CB
:101300001C4D5543056002E0194D5543056002E050
:10131000174D056000BF00BF144D6D6805F0F0016A
:101320000909154D6B5C0568DD4045600F4D6D6822
:1013300005F4E061090A104D6B5C4568DD4085608D
:101340000A4D6D6805F46051C90A0B4D6B5C456828
:10135000DD40C560054D6D6805F44041890B074DC2
:101360006B5CC568B5FBF3F5056130BD001002404C
:1013700000127A0000093D00140000202400002023
:10138000704710B500F002F810BD00000CB5002049
:10139000019000903348006840F480303149086083
:1013A00000BF3048006800F4003000900198401CF5
:1013B0000190009818B90198B0F5A06FF1D12948B3
:1013C000006800F4003010B10120009001E000201E
:1013D00000900098012843D12348006840F0100095
:1013E000214908600846006820F0030008600846AC
:1013F000006840F0020008601A48406819494860D7
:101400000846406848600846406840F4806048608C
:101410000846406820F47C1048600846406840F464
:10142000E81048600846006840F08070086000BF1F
:101430000C48006800F000700028F9D009484068A6
:1014400020F00300074948600846406840F0020069
:10145000486000BF0348406800F00C000828F9D13C
:101460000CBD0000001002400020024010B501F049
:1014700069F801F0EBFE01F075F810BD10B51348E6
:10148000006840F0010011490860084640681049B2
:1014900008400E494860084600680E4908400B495C
:1014A00008600846006820F480200860084640680C
:1014B00020F4FE0048604FF41F008860FFF761FFD2
:1014C0004FF000600449086010BD000000100240A9
:1014D0000000FFF8FFFFF6FE08ED00E010B516482B
:1014E000008800F00100F8B114480078401C13494E
:1014F0000870084600780A2816D1002008704FF0BE
:101500008040808C00B20E4908800E48008800B2EE
:101510000D49088000204FF08041888409490880E7
:101520000A48006801F058FB0348008820F00100D9
:101530000149088010BD0000102C01402800002047
:101540007C000020240400407E0000202C000020AD
:101550004FF08040008A4FF08040008A20F0010068
:101560004FF0804108827047044800880348008893
:1015700020F001000149088070470000100400407D
:1015800021B1028842F08002028004E002884FF616
:101590007F731A4002807047CA430282704721B1AC
:1015A000028842F00102028004E002884FF6FE73D6
:1015B0001A400280704731B1B0F8442042F4004232
:1015C000A0F8442005E0B0F84420C2F30E02A0F8D1
:1015D00044207047F0B50C4615461E4600210022F7
:1015E00000230189028B038C4FF6F87739402143A1
:1015F0004FF6FC473A4040F201173A434FF6DD7789
:101600003B404FF6FF7707EA06172F433B43018124
:1016100002830384F0BD1AB183890B43838102E006
:1016200083898B438381704770B500240022002397
:10163000058C4FF6FE7635400584028C8388048B3A
:101640004FF68F752C40B51E2C400D882C43751E0F
:101650002A400D892A434D882A43144DA8420BD0B5
:10166000134DA84208D0134DA84205D0124DA842F0
:1016700002D0124DA84213D14FF6F7752A404D897A
:101680002A434FF6FB752A408D882A434FF6FF65A3
:101690002B404FF6FF552B408D892B43CD892B4393
:1016A00083800483CD888586028470BD002C014030
:1016B0000034014000400140004401400048014026
:1016C0000A460021018B4FF6F7731940114301833D
:1016D0007047000070B5002200230024058C4EF6F0
:1016E000FF7635400584038C8488828B48F6FF752D
:1016F0002A404FF6FF452A400D884FF6FF7606EA4E
:1017000005252A434DF6FF752B400D8906EA053560
:101710002B434D8806EA05352B430B4DA84202D0DA
:101720000A4DA84208D14BF6FF752C408D894FF623
:10173000FF7606EA85152C4384808283CD88A0F845
:101740004050038470BD0000002C01400034014073
:101750000A460021818B4FF2FF7319404FF6FF7349
:1017600003EA022319438183704781847047000094
:10177000002202881D4B98420ED01D4B98420BD080
:10178000B0F1804F08D01B4B984205D01A4B9842BD
:1017900002D01A4B984204D14FF68F731A404B88EF
:1017A0001A43174B984207D0164B984204D04FF675
:1017B000FF431A40CB881A4302808B8883850B88AD
:1017C00003850A4B98420BD0094B984208D00E4B28
:1017D000984205D00D4B984202D00D4B984201D152
:1017E0000B7A03860123838270470000002C01409E
:1017F000003401400004004000080040000C00409C
:10180000001000400014004000400140004401402E
:1018100000480140044800880348008820F0200068
:1018200001490880704700000038014000B587B0CA
:1018300001218803FFF72AFD01210420FFF726FD7F
:101840004FF40070ADF8180018208DF81B0003202D
:101850008DF81A0006A91E48FFF7F6FA4FF48060CB
:10186000ADF8180004208DF81B0006A91848FFF7F2
:10187000EBFA4FF4E13002900C20ADF8120000209A
:10188000ADF81000ADF80E00ADF80C00ADF8140086
:1018900002A9104800F052F825208DF8040001201C
:1018A0008DF8050000208DF8060001208DF8070056
:1018B00001A8FFF789FC012240F22551054800F0FC
:1018C00017F80121034800F007F807B000BD000039
:1018D000000801400038014021B1828942F40052E1
:1018E000828104E082894DF6FF731A40828170473D
:1018F000F0B50346002400260025002040F66A17B4
:10190000B94200D100BF1846C1F3421401F01F06CE
:10191000012707FA06F5012C01D10C3004E0022C56
:1019200001D1103000E014301AB107682F4307606E
:1019300002E00768AF430760F0BD00002DE9F04703
:1019400086B005460E460024A24600BFA1460027E9
:10195000B08900B100BF2F462C8A4CF6FF700440BE
:10196000F08804432C82AC894EF6F3100440B08812
:1019700031890843718908430443AC81AC8A4FF62E
:10198000FF400440B0890443AC8201A8FFF78EFCFD
:101990001F48874202D1DDF810A001E0DDF80CA05D
:1019A000A88900F4004040B10AEBCA0000EB0A101D
:1019B00031684900B0FBF1F807E00AEBCA0000EB20
:1019C0000A1031688900B0FBF1F86420B8FBF0F030
:1019D00004012009642101FB1089A88900F400405A
:1019E00040B1322000EBC900B0FBF1F000F007007D
:1019F000044308E0322000EB09106421B0FBF1F051
:101A000000F00F0004432C8106B0BDE8F087000011
:101A10000038014000BFFEE7004870474801002041
:101A2000014609B900207047C8B220B1C8B20E4AB9
:101A3000105C401CF7E701F47F4028B10A48C1F36D
:101A40000722805C0930EEE701F47F0028B10648E8
:101A5000C1F30742805C1130E5E7034800EB1160F9
:101A600000781930DFE70000343B000802E008C8C6
:101A7000121F08C1002AFAD170477047002001E008
:101A800001C1121F002AFBD17047000003490868FA
:101A9000884201D0012070470020FCE7240100208B
:101AA0002DE9FC5F04468B4615461E46DDE90C9A7F
:101AB000DDE90E7804F114004060006000BF1C34C2
:101AC0006560A660C4F80C90C4F810A02321D4E986
:101AD000030200F0CFFED4E9033C63441A1F0F4B0E
:101AE000D4E9010100F008FD2060A77667760020A8
:101AF000E061C4F82880C4F82C8060612076E0653D
:101B000020661C3C00902346054A2146019004F1C2
:101B10004C0001F01DFC0020BDE8FC9F712F000867
:101B2000BD3100082DE9F04704460E461746984699
:101B3000DDF8209084F80990607A20F0010060724E
:101B4000E66127620020A062C4F82480002506E038
:101B500004F1140101EBC50000F094FD6D1C012D92
:101B6000F6DBBDE8F08710B50246002001460EE026
:101B700002F1140303EBC100D0E900436360D0E934
:101B8000003423604060006000BF481C014601290A
:101B9000EEDB10BD00242AE04FF0FF31144800684E
:101BA00001F037F818BB13480068412812D04D28BF
:101BB0001CD100201049C860086148610F49C86005
:101BC000086148610B480B30FEF748FB00B20C4936
:101BD00008800BE007480B30FEF740FB04B20949D0
:101BE0000C800948006800F0F7FF00BF00BFD3E792
:101BF000300000204C010020480000206000002040
:101C0000780000207A0000203400002070B50446DF
:101C1000002501F015FB051900BF01F011FB281A82
:101C20000028FADC70BD000010B5002417480068D9
:101C300040F48060154908600120FFF7E7FF134872
:101C4000006820F480601149086000BF4FF4006113
:101C50000E480C38FFF7CCF9041EF7D00C4800886A
:101C600000B20C49088000BF4FF4006107480C38EF
:101C7000FFF7BEF9041EF7D1054800880549098819
:101C8000401A00B20349088010BD00000C0C01404E
:101C90002408004080000020002813DD1649096850
:101CA00041F48051144A11601449096841F400411B
:101CB000124A11601146096821F480411160104AEE
:101CC000108018E0002814DA0B49096841F48051AB
:101CD000094A11600949096841F48041074A1160C5
:101CE0001146096821F4004111604142044A118003
:101CF00001E0034A108070470C0801400C0C0140C1
:101D0000402C01401CB500F005FA01F0A7FD0022AF
:101D1000114630A000F038FF31490860002211461A
:101D200030A000F031FF314908600022114630A098
:101D300000F02AFF3049086000230A2202212FA068
:101D400000F0BCFD2F490860142005214FF480638A
:101D50000022CDE900102C492CA001F0DAF82F491F
:101D60000860142007214FF480630022CDE90010A1
:101D70002B492CA001F0CDF82D4908601420062134
:101D80004FF480630022CDE900102A492AA001F017
:101D9000C0F82C4908602148006818B11F48006845
:101DA00001F0D4F92248006818B12148006801F018
:101DB000CDF92448006818B12248006801F0C6F93E
:101DC00000F0B8F905E0FFF72FFF4FF4FA7001F0CB
:101DD000C8F8F8E7776865656C5F666C6167000056
:101DE0002C00002063616E5F72637600300000207B
:101DF000616E676C650000003400002073706565DB
:101E00006400000038000020951B000863616E5FCD
:101E10007263765F7468726561640000440000203C
:101E2000B1380008776865656C5F7461736B00009A
:101E30003C0000200D380008736574416E676C65C6
:101E4000000000004000002010B5044600F054F9E6
:101E5000FFF758FF10BD000030B51A4C43682468E6
:101E60001919884215D04B889BB9174B1B689942AA
:101E70000FD0164B1B688B4201D1144B18604B6876
:101E80004360104B1B68C31A0E4D4C682D682C44E0
:101E9000A3600C4C836824681A19824211D05388BD
:101EA0007BB90A4B1B68834201D1084B1A60436817
:101EB0005360044B1B68D31A024D44682D682C44B0
:101EC000A36030BD8C000020900000209400002012
:101ED0002DE9F04F85B00D469C46DDE90F740E9B51
:101EE00004F04008B8F1000F02D0DFF8688101E08B
:101EF000DFF86481CDF8008004F01008B8F1000F1D
:101F000001D024F0010404F00108B8F1000F02D060
:101F10004FF0300801E04FF02008C246002604F0E0
:101F20000208B8F1000F11D0002A02DA2D26524221
:101F30000CE004F00408B8F1000F01D02B2605E0F6
:101F400004F00808B8F1000F00D02026002142B9A3
:101F50004FF0300B8846491C0DF1040909F808B010
:101F60001DE01AE0E146B9F10A0F08D14FF00A0B63
:101F7000B2FBFBFE0BFB1E28B2FBFBF202E002F001
:101F80000F08120900BFDDF8009019F808B0884664
:101F9000491C0DF1040909F808B0002AE2D1B94240
:101FA00000DD0F46DB1B04F01108B8F1000F10D163
:101FB00016B1002B00DD5B1E06E0A84203D84FF0EF
:101FC000200880F80080401CB3F10008A3F1010351
:101FD000F3DC26B1A84201D806705B1E401C04F059
:101FE0001008B8F1000F0AD104E0A84201D880F827
:101FF00000A0401CB3F10008A3F10103F5DC06E0EA
:10200000A84203D84FF0300880F80080401CB84642
:102010007F1E8845F4DC08E0A84205D80DF10408CD
:1020200018F8018080F80080401CB1F10008A1F18F
:102030000101F1DC06E0A84203D84FF0200880F847
:102040000080401CB3F10008A3F10103F3DC05B0EC
:10205000BDE8F08F453C0008343C000800280EDD48
:102060001149096841F2100211430F4A11601146EB
:10207000096821F0200111600C4A108012E000284C
:102080000EDA0949096841F48151074A1160114685
:10209000096821F0100111604142044A118001E0F9
:1020A000024A1080704700000C080140342C0140A7
:1020B0001CB5142002210B020022CDE900100449B6
:1020C00004A000F026FF0446204601F03FF81CBDA6
:1020D000491E00086D61696E0000000010B5044CD7
:1020E00002E020688047241D02488442F9D310BDD5
:1020F000E03C0008E43C000810B5044C02E0206815
:102100008047241D02488442F9D310BDE43C0008F6
:10211000E83C000810B5FEF729F80446044800889A
:10212000401C00B2024908802046FEF723F810BD8B
:102130001401002010B5FEF719F804460B4800887A
:10214000401E00B2094908800846B0F90000002886
:1021500007DC002008802046FEF70CF800F07AFC2F
:1021600002E02046FEF706F810BD00001401002032
:1021700070B5054605B970BD1D480068854203D39A
:102180001C480068854200D3F5E7A5F10C044FF028
:10219000FF31194800F03DFD608818B12088B0F586
:1021A000F55F08D015A000F04FFA23886288214619
:1021B00019A000F049FA002060804FF4F55020800B
:1021C00021480068844201D21F48046008496068C1
:1021D0000968611A401A1D490968081A1B490860F4
:1021E0002046FFF739FE044800F0F6FC00BFC2E7C6
:1021F0008C0000209000002060430020746F206657
:10220000726565206120626164206461746120628E
:102210006C6F636B3A0A00006D656D3A203078256B
:102220003038782C207573656420666C61673A20BD
:1022300025642C206D6167696320636F64653A20B3
:102240003078253034780A00940000209C0000206B
:10225000004870476001002000487047604100203E
:1022600070B5214800684FF47A72B0FBF2F1B1F119
:10227000807F00D31DE021F07F40401E4FF0E02220
:10228000506150170F22002807DA13071D0E174B55
:1022900000F00F04241F1D5503E013071C0E144B00
:1022A0001C5400BF00204FF0E02290610720106115
:1022B00000BF4FF44070FEF7BFFFFEF7D9FEFEF7F8
:1022C000A1FEFEF773FDFFF7B1FAFEF7E3FCFFF79F
:1022D00005FFFFF7C1FF0446FFF7BAFF0546214699
:1022E00000F04EFD70BD00000000002018ED00E081
:1022F00000E400E07047000070B505462C1D2E4834
:10230000006838B128462C4909688847064606B94E
:1023100070BD00BF29A0E16B00F096F92BA0216AE7
:1023200000F092F92DA0616A00F08EF92FA0A16A49
:1023300000F08AF931A0E16A00F086F933A0216843
:1023400000F082F935A0616800F07EF937A0A1683D
:1023500000F07AF939A0E16800F076F93BA0216934
:1023600000F072F93DA0616900F06EF93FA0A1692B
:1023700000F06AF941A0E16900F066F943A0216B21
:1023800000F062F945A0616B00F05EF947A0A16B17
:1023900000F05AF9287800F0040038B100F0AEFEE1
:1023A0000646314645A000F04FF902E04BA000F090
:1023B0004BF900BFFEE70000440100207073723A41
:1023C000203078253038780A000000007230303A2A
:1023D000203078253038780A000000007230313A19
:1023E000203078253038780A000000007230323A08
:1023F000203078253038780A000000007230333AF7
:10240000203078253038780A000000007230343AE5
:10241000203078253038780A000000007230353AD4
:10242000203078253038780A000000007230363AC3
:10243000203078253038780A000000007230373AB2
:10244000203078253038780A000000007230383AA1
:10245000203078253038780A000000007230393A90
:10246000203078253038780A000000007231303A88
:10247000203078253038780A000000007231313A77
:10248000203078253038780A000000007231323A66
:10249000203078253038780A00000000206C723A2D
:1024A000203078253038780A000000002070633A28
:1024B000203078253038780A0000000068617264A6
:1024C000206661756C74206F6E207468726561643B
:1024D0003A2025730D0A0D0A00000000686172643D
:1024E000206661756C74206F6E2068616E646C6527
:1024F000720D0A0D0A000000F0B504460D4616469E
:10250000301D20F0070040380146002203E00C4F48
:1025100041F82270521C102AF9D30D624FF0000CC2
:10252000C1F824C0C1F828C0C1F82CC0C1F830C01F
:102530004B638C634FF0807CC1F83CC0F0BD000061
:10254000EFBEADDE10B5FDF711FE0446044800787D
:10255000401C034908702046FDF70CFE10BD00002A
:102560008800002010B5FDF701FE044604480078FD
:10257000401E034908702046FDF7FCFD10BD000019
:102580008800002070B504462068A0F11405284694
:1025900000F096FD002070BD70B505460EE0FDF719
:1025A000E5FD06462868A0F114044FF0FF302063D3
:1025B000204600F085FD3046FDF7DCFD284600F0A2
:1025C00080F80028EBD0002070BD2DE9F0410546D1
:1025D0000C469046204600F0CFFDB8F1000F03D026
:1025E000B8F1010F23D105E004F11401284600F0F1
:1025F00061F81CE02E680FE0A6F1140794F835008E
:1026000097F83510884206DA04F1140107F1140036
:1026100000F050F802E03668AE42EDD100BFAE42A5
:1026200004D104F11401284600F044F800BF00BFB3
:102630000020BDE8F08110B5044604F1140000F05C
:102640001BF8002010BD00000FB438B505A800909D
:102650007F210848009B049A00F026FF04467F2C47
:1026600000D97F240348FFF745FE0020009038BCC6
:102670005DF814FBE042002040600060704740605D
:1026800000607047406000607047026851600268F7
:102690000A600160486070470268516002680A6021
:1026A0000160486070470268516002680A6001601A
:1026B000486070474268116042684A604160086043
:1026C000704701460868884201D101207047002008
:1026D000FCE701460868884201D1012070470020CC
:1026E000FCE7D0E900215160D0E9001211604060A0
:1026F00000607047D0E900215160D0E900121160FC
:1027000040600060704700002DE9F041054615B9B2
:102710000020BDE8F081E81C20F003054E48006869
:10272000854201D90020F4E70C2D00D20C254FF092
:10273000FF314A4800F06DFA494800684949096884
:10274000461A7EE04748006884196088002874D1E2
:1027500006F10C006168081AA8426ED306F10C005D
:102760006168091A05F11800814230D306F10C00A6
:1027700000EB05083B48006800EB08074FF4F550F4
:1027800038800020788060687860BE60C4F804807B
:10279000012060803048796800680C30814205D0A3
:1027A0003049786809680844C0F808802E480168F4
:1027B00005F10C0008442C4908602C4800680968A1
:1027C000884219D2284800682849086014E001208E
:1027D0006080244960680968611A401A22490968C2
:1027E000084421490860214800680968884203D2EA
:1027F0001D4800681D4908604FF4F55020801848B6
:102800000068844212D107E0154800684068154905
:10281000096808441249086011480068408828B1D6
:102820000F480068124909688842EDD10B4800F052
:10283000D3F904F10C006CE7FFE70A480068304464
:10284000466805480068401BB0423FF67BAF03482E
:1028500000F0C2F900205CE79800002060430020EF
:10286000940000208C0000209C000020A00000208C
:1028700090000020F0B50C460546E6B2042A15D3B8
:1028800000F0030797B9014646EA062343EA0343EB
:1028900004E008C108C108C108C1103A102AF8D2E2
:1028A00001E008C1121F042AFBD20D4601E005F821
:1028B000016B171EA2F10102F9D1F0BD2DE9F0471D
:1028C0000746884691469A463946052000F044F866
:1028D000044614B92046BDE8F08784F809A02046D4
:1028E000FFF7A9FE08F1030020F003002084A4F8FC
:1028F0002290218C091D628C01FB02F0FFF704FF7E
:10290000E061E06920B9204600F018F80020E2E715
:102910000020A062E0622063002508E0208C001DFA
:10292000E16905FB0016206B306026636D1C608C2E
:10293000A842F3DC0020A0842046CCE710B5044672
:1029400004F11400FFF728FEE069FFF711FC2046B0
:1029500000F027F8002010BD2DE9F04105460F4694
:10296000284600F03BF80646F068FFF7CDFE044627
:1029700014B90020BDE8F0812572002060720822A1
:102980003946204600F0E1F9FDF7F0FB804604F1FE
:102990000C01301DFFF779FE4046FDF7EBFB2046AA
:1029A000E8E770B50446FDF7E1FB054604F10C00CD
:1029B000FFF797FE2846FDF7DDFB2046FFF7D8FB23
:1029C00070BD70B50446FDF7D1FB054604F10C005F
:1029D000FFF787FE2846FDF7CDFB70BD02460021BC
:1029E0000AE0074800EB01100078904203D1044848
:1029F00000EB01107047491C0729F2DB0020F9E7C2
:102A0000A40000202DE9F04104460D461646284654
:102A1000FFF7E4FF074645F08000207208223146A8
:102A2000204600F092F9FDF7A1FB804604F10C016D
:102A3000381DFFF72AFE4046FDF79CFBBDE8F081FC
:102A40000146087A00F0800008B10120704700209C
:102A5000FCE700002DE9F041FDF788FB07461B4825
:102A6000008868BB1A480068FEF7DAFF461E19485E
:102A700050F83600A0F114041748006884421BD0B7
:102A800016490E701448056804601548007848B966
:102A900004F11C0105F11C00FDF76FFB3846FDF742
:102AA00069FB0CE004F11C0105F11C00FDF765FB5E
:102AB0003846FDF75FFB02E03846FDF75BFB02E0BE
:102AC0003846FDF757FBBDE8F081000014010020F7
:102AD0002001002080430020180100201C0100205C
:102AE0008800002070B50446FDF740FB054614F849
:102AF000340F20F00F0040F0010020706278343C69
:102B00000A4B03EBC20004F11401426811604268F1
:102B10004A604160086000BF0549A06B096808432E
:102B2000034908602846FDF725FB70BD804300205F
:102B30002001002070B50446FDF718FB054604F19E
:102B40001400D0E900215160D0E90012116040600A
:102B5000006000BF94F83510094A02EBC10001681B
:102B6000814201D1012100E0002129B10548A16B7A
:102B700000688843034908602846FDF7FBFA70BDEA
:102B800080430020200100202DE9F04105460E463B
:102B9000174629460120FFF7DFFE044614B92046F8
:102BA000BDE8F0812046FFF746FDA6836772204608
:102BB000F6E72DE9F04104460D4616461F462A4623
:102BC00001212046FFF71EFF2046FFF734FDA683B4
:102BD00067720020BDE8F08170B504460025FDF75E
:102BE000C5FA064604F11400FFF76BFD28B904F19D
:102BF0001400FFF7C7FC012502E0A08B401CA08356
:102C00003046FDF7B7FA012D01D1FFF723FF002071
:102C100070BD73B50546FDF7A9FA0646A88B0028D6
:102C200006DDA88B401EA8833046FDF7A3FA28E0F6
:102C3000019828B93046FDF79DFA6FF001007CBD80
:102C400000F05CFA0446002020636A7A214605F110
:102C50001400FFF7BAFC0198002809DD01AA002141
:102C600004F14C0000F048FB04F14C0000F088FB3C
:102C70003046FDF77FFAFFF7EDFE206B08B1206BC1
:102C8000DDE70020DBE7000008B509A0FFF7DCFC6A
:102C90000AA0FFF7D9FC12A00323002219460090D6
:102CA00012A0FFF7D1FC19A0FFF7CEFC08BD000071
:102CB0000A205C207C202F0A000000002D205254A6
:102CC000202D2020202020546872656164204F70E0
:102CD00065726174696E672053797374656D0A005B
:102CE0004E6F76203131203230323100202F207C5F
:102CF000205C202020202025642E25642E256420A1
:102D00006275696C642025730A000000203230303F
:102D100036202D203230313820436F707972696748
:102D200068742062792072742D7468726561642001
:102D30007465616D0A00000001460A4600E0521CFD
:102D400010780028FBD1501A704770B50346A2B125
:102D500018460C4600BF14F8016B00F8016B3EB931
:102D600002E0002500F8015B551E2A1EF9D102E0A1
:102D7000551E2A1EEFD100BF00BF184670BD0000CF
:102D80002DE9F04105460E46E81C20F0030726F029
:102D90000308B8F1180F09D9A8F11800B84205D3F3
:102DA000A8EB070018381E49086006E0324629469D
:102DB0001CA0FFF749FCBDE8F081294807600468C2
:102DC0004FF4F5502080164800680C3060600020F9
:102DD000A060608022496068096808442149086051
:102DE0004FF4F5500968088001201E4909684880A1
:102DF0000B4800680C301B490968486008480068A7
:102E00000C301849096888600023012216A118486F
:102E1000FFF7CFFE124800681649086000BFCAE7F6
:102E2000980000206D656D20696E69742C206572B4
:102E3000726F7220626567696E2061646472657387
:102E40007320307825782C20616E6420656E6420B4
:102E50006164647265737320307825780A0000001D
:102E60008C00002090000020686561700000000068
:102E7000604300209400002010B500200B4908801A
:102E8000002405E00A4901EBC400FFF7F8FB641CCD
:102E9000082CF7DB07200749087000200649086066
:102EA000064908600648FFF7EAFB10BD1401002040
:102EB000804300201C010020180100202001002078
:102EC0002401002070B508480068FEF7A9FD451EE2
:102ED000064850F83500A0F114040548046004F1D8
:102EE0001C00FDF778F970BD200100208043002010
:102EF0001801002010B5002405E0044901EBC400CE
:102F0000FFF7C0FB641C002CF7D010BD2C01002083
:102F100070472DE9FF5F06460F4690461D46DDE9E6
:102F20000EAB31460020FFF717FD8146B9F1000FC7
:102F300003D1002004B0BDE8F09F2846FFF7E4FB72
:102F4000044624B94846FFF72CFD0020F2E743462B
:102F50003A46314648468DE8300CFEF7A1FD48461A
:102F6000E8E710B50446204600F0CEF810BD00009A
:102F700070B512480468FDF7F9F805462046FFF7DA
:102F8000D9FD042084F8340004F14C0000F0D0F99D
:102F90002046FFF755FD012805D1A06F18B920463E
:102FA000FFF70FFD04E004F114010548FFF774FB7F
:102FB0002846FDF7DFF8FFF74DFD70BD1801002032
:102FC0002401002001E000F001F8FCE770B537E0D3
:102FD000FDF7CCF80546FEF759FD18B31B4800680D
:102FE000A0F1140404F11400D0E900215160D0E9EB
:102FF000001211604060006000BFFFF78BF8A06F07
:1030000010B12046A16F88472046FFF719FD01281F
:1030100005D1FFF78FF82846FDF7ACF870BDFFF734
:1030200089F803E02846FDF7A5F8F7E72846FDF7FD
:10303000A1F8A06AFFF79CF82046FFF7B2FC00BF9A
:10304000FEF724FD0028C3D100BFE7E724010020DC
:103050001FB520200721C200074BCDE90032CDE982
:1030600002100023054A06A1074800F00FF80648A1
:1030700000F06CF81FBD0000E0410020C52F0008E3
:103080007469646C65000000604100202DE9FF5FF9
:1030900005460C4616461F46DDE910ABDDE90E89F4
:1030A000224600212846FFF7ADFC3B46324621462A
:1030B00028468DE8000FFEF7F3FC04B0BDE8F09F52
:1030C00070B5044694F8340000F00F00022802D0D6
:1030D0004FF0FF3070BDFDF749F8054604F11400CC
:1030E000FFF708FB04F14C0000F0C6F92846FDF795
:1030F00041F82046FFF7F6FC0020EBE701480068A6
:10310000704700001801002031B5FDF72FF8054683
:103110000D480468204600F02FF86A46002104F1AB
:103120004C0000F0E9F804F14C0000F029F92846C1
:10313000FDF720F8FFF78EFC206B801C08B90020FB
:103140002063002038BD00001801002010B504469F
:103150003434A0786070617801208840606002207B
:1031600004F834092046FFF7ABFFFFF7C7FF08B1AB
:10317000FFF770FC002010BD70B5044694F83400D1
:1031800000F00F00012802D04FF0FF3070BDFCF7B7
:10319000EDFF054694F8340020F00F0040F00200E7
:1031A00084F834002046FFF7C5FC04F14C0000F021
:1031B00063F92846FCF7DEFF0020E7E770B5044618
:1031C00025466FF00100286305F11400FFF792FA1D
:1031D0002846FFF787FCFFF73DFC70BD70B5FCF794
:1031E000C5FF05461448046894F8340000F00F0049
:1031F00001281CD1D4E90510814218D004F1140033
:10320000FFF778FA94F835200C4B03EBC20004F179
:1032100014014268116042684A604160086000BF62
:103220002846FCF7A7FFFFF715FC002070BD2846D5
:10323000FCF7A0FF0020F9E71801002080430020E0
:1032400001480068704700008400002010B50A485B
:103250000068401C08490860FFF750FF0446A06C56
:10326000401EA064A06C18B9606CA064FFF7B6FFA4
:1032700000F004F810BD00008400002070B5FFF7D6
:10328000DFFF0546FCF772FF064628E01948006894
:10329000A0F11404A06A281A6FF0004188421DD2E0
:1032A0002046FEF760FCD4E907108847FFF7C8FF07
:1032B0000546607A00F0020058B1607A00F0010023
:1032C00038B1607A20F001006072204600F058F8B2
:1032D00005E0607A20F00100607200E004E005483B
:1032E000FFF7F7F90028D1D000BF3046FCF742FFC6
:1032F00070BD00002C010020034649B1012904D013
:10330000022908D0032910D10AE0586A10600CE0A5
:103310001068586209E0587A20F00200587204E000
:10332000587A40F00200587200BF00BF002070477A
:1033300070B50446FCF71AFF05462046FEF713FC5D
:103340002846FCF717FF2046FFF73BFB002070BD27
:103350002DE9F84307460C4615461E46DDE9088967
:10336000224609213846FFF74DFB4346324629469F
:103370003846CDF80090FEF7D5FBBDE8F883000095
:103380002DE9F8430546FCF7F1FE80462846FEF796
:10339000EAFB687A20F0010068724046FCF7EAFE1A
:1033A000FFF74EFF696A0844A862FCF7DFFE80461B
:1033B0002F4F009700242AE019E05DF824201168BF
:1033C000142202EBC402881A826AAB6AD21A00D1B4
:1033D00008E0826AAB6AD21A6FF000439A4200D2C8
:1033E0000CE000BF5DF8240000684DF824005DF893
:1033F000240007EBC40149688842DED100BF2CB12C
:103400005DF824000830611C4DF82100641C002C7C
:10341000D2D018480068401C164908600846066863
:1034200005F114010098FFF73EF9022412E006F0BE
:10343000030060B9C4F1010305F1140202EBC301FA
:10344000C4F101025DF82200FFF72DF900E003E06E
:10345000B608641C012CEAD900BF687A40F001006C
:1034600068724046FCF786FE0020BDE8F883000045
:103470002C0100203401002070B50446607A00F071
:10348000010010B94FF0FF3070BDFCF76FFE05462C
:103490002046FEF768FB2846FCF76CFE607A20F0B9
:1034A000010060720020EFE72DE9FF4F89B08046F0
:1034B00044460A984044461E464504D24FF0FF3623
:1034C000A6EB08000A906FE10B980078252806D03B
:1034D000B44202D80B9800782070641C61E100258A
:1034E00026E00B98401C0B900B9800782D2802D1F9
:1034F00045F010051CE00B9800782B2802D145F010
:10350000040515E00B980078202802D145F0080545
:103510000EE00B980078232802D145F0200507E043
:103520000B980078302802D145F0010500E000E05A
:10353000D7E700BF4FF0FF370B98007830380A28E4
:1035400004D20BA800F076F907460EE00B9800783D
:103550002A280AD10B98401C0B900C9880C80C901C
:10356000002F02DA7F4245F010054FF0FF390B982B
:1035700000782E281CD10B98401C0B900B980078DB
:1035800030380A2804D20BA800F054F981460AE02A
:103590000B9800782A2806D10B98401C0B900C98A9
:1035A00050F8049B0C90B9F1000F01DA4FF00009BC
:1035B000002004900B980078682803D00B980078BE
:1035C0006C2805D10B98007804900B98401C0B9048
:1035D0000A2005900B9800786F2875D00CDC6328C2
:1035E00013D004DC252870D058286FD18DE06428D2
:1035F0006DD06928F9D18FE070286AD0732825D062
:10360000752878D07828F0D182E005F0100040B914
:1036100004E0B44201D820202070641C781E071EEC
:10362000F7DC0C9810F8041B0C90C8B20790B44259
:1036300001D807982070641C04E0B44201D820200F
:103640002070641C781E071EF7DCAAE00C98006846
:1036500006900C98001D0C90069808B95AA0069088
:103660000698FFF769FB8346B9F1000F02DDCB45F1
:1036700000DDCB4605F0100048B904E0B44201D8A3
:1036800020202070641C38467F1E5845F6DC002040
:1036900008900BE0B44202D8069800782070641CB1
:1036A0000698401C06900898401C089008985845B9
:1036B000F0DB04E0B44201D820202070641C3846BE
:1036C0007F1E5845F6DC6CE01CE015E028E022E0A7
:1036D000FFE7781C10B9082745F00105CDE900790E
:1036E00002950C9804C8102331460C902046FEF732
:1036F000EFFB044655E012E0B44201D825202070CB
:10370000641C4EE0082005901DE045F0400500BF18
:103710001020059017E000BF45F0020500BF12E041
:10372000B44201D825202070641C0B98007830B179
:10373000B44202D80B9800782070641C02E00B9809
:10374000401E0B902DE000BF04986C2807D10C9808
:1037500050F804AB0C9005F00200B8B116E00498E4
:1037600068280BD10C9830F8041B1FFA81FA0C90D2
:1037700005F0020050B10FFA8AFA07E00C9850F8F1
:1037800004AB0C9005F0020000B100BFCDE9007958
:103790000295524631462046059BFEF799FB0446AA
:1037A00000BF0B98401C0B900B98007800287FF40A
:1037B0008BAEB44201D8207001E000203070A4EB41
:1037C00008000DB0BDE8F08F284E554C4C29000084
:1037D000002070470020704700207047002070478D
:1037E00010B5FCF7C3FCFEF73BFDFFF74DFAFFF702
:1037F00081FBFFF741FBFEF75BFCFFF789FBFFF75F
:1038000027FCFFF75FFB002010BD00000AE04FF02F
:10381000FF3105480068FFF7FCF918B90348008834
:1038200003490880F3E70000340000207A000020FC
:10383000340800400146002009E00B685A1C0A6069
:103840001A7800EB800302EB4302A2F130000A6811
:103850001278303A0A2AF0D37047000008B50121E7
:103860000920FDF713FD4FF48060ADF80000102033
:103870008DF8030003208DF8020069460B48FDF720
:10388000E3FA4FF40060ADF8000004208DF8030067
:1038900069460648FDF7D8FA04480C30006820F461
:1038A000806002490C31086008BD0000000C014036
:1038B00086B000200590049003900024814601907A
:1038C00020E14FF0FF3190480068FFF7A2F900288F
:1038D000F6D18E48B0F90000FCF7D2FD82468C4A42
:1038E0008C4BFCF752FD074600228B4BFCF74DFD3D
:1038F0000546FCF733FE04468848B0F90000FCF7A3
:10390000B6FD05462146FCF708FD854908612046BD
:103910000199FCF702FD039001948048B0F9000082
:10392000FCF7AEFD82464FF033327E4BFCF72DFDA7
:1039300005460E467A490869FCF7CCFD07462A463B
:103940003346FCF7F3FD17D37448B0F90000FCF7D9
:1039500097FD07464FF03332724BFCF716FD81F0AE
:10396000004B82466E490869FCF7B4FD0546524695
:103970005B46FCF7C3FD05D26B486949086000202F
:1039800002900DE04FF07E50654908600A461169CB
:103990005069FCF770FC6249486108464069029032
:1039A0005F4988680399FCF7BEFC07465C49486894
:1039B0000299FCF7B8FC8046594A11691068FCF777
:1039C000B2FC82464146FCF756FC06463946FCF7F7
:1039D00052FC0546FCF765FD00B205905348B0F96E
:1039E0000000FCF74DFD0746494A4A4BFCF7CDFC69
:1039F00005460022484BFCF7C8FC8246FCF7AEFDAA
:103A000081464648B0F90000FCF731FD05464946BD
:103A1000FCF783FC4649086148460199FCF77DFCA8
:103A20000390CDF804903D48B0F90000FCF728FD64
:103A300082464FF033323B4BFCF7A7FC05460E465F
:103A40003B490869FCF746FD07462A463346FCF722
:103A50006DFD17D33148B0F90000FCF711FD824627
:103A60004FF033322F4BFCF790FC81F000460546B7
:103A70002F490869FCF72EFD07462A463346FCF716
:103A80003DFD05D228482A490860002002900DE03B
:103A90004FF07E50264908600A4611695069FCF7CC
:103AA000EAFB23494861084640690290204988683A
:103AB0000399FCF738FC07461D4948680299FCF752
:103AC00032FC80461A4A11691068FCF72CFC8246C9
:103AD0004146FCF7D0FB06463946FCF7CCFB0546D1
:103AE000FCF7DFFC00B204900498FEF7D5F80598C7
:103AF000FEF7B4FA0E4800690D49C860084800692D
:103B00000749C860DDE600002C0000207E00002090
:103B1000728A8EE4F21F9A3F00005940780000201C
:103B2000480000203333E33F0000C8427C000020FF
:103B300060000020000001000200010003000100FD
:103B40000200010004000100020001000300010066
:103B50000200010005000100020001000300010055
:103B60000200010004000100020001000300010046
:103B70000200010006000100020001000300010034
:103B80000200010004000100020001000300010026
:103B90000200010005000100020001000300010015
:103BA0000200010004000100020001000300010006
:103BB00002000100070001000200010003000100F3
:103BC00002000100040001000200010003000100E6
:103BD00002000100050001000200010003000100D5
:103BE00002000100040001000200010003000100C6
:103BF00002000100060001000200010003000100B4
:103C000002000100040001000200010003000100A5
:103C10000200010005000100020001000300010094
:103C20000200010004000100020001000300010085
:103C300002000100303132333435363738396162B1
:103C40006364656600303132333435363738394194
:103C500042434445460000404040404040404040D0
:103C6000414141414140404040404040404040404F
:103C7000404040404040400502020202020202026F
:103C80000202020202020220202020202020202006
:103C90002002020202020202909090909090101076
:103CA0001010101010101010101010101010101014
:103CB0001010020202020202888888888888080898
:103CC0000808080808080808080808080808080874
:103CD0000808020202024000573C0008DD370008D5
:103CE000D5370008D1370008D93700080C3D000847
:103CF000000000204C01000052080008743D00083C
:103D00004C010020744600007C1A00081184A24A6D
:103D100004680901020304060708090C691005225A
:103D20000204060833A0421A3F080A24401861031F
:103D300026FFFF22A82A20042A809C311AB80C29C9
:103D400004322032021AC80C2904322432031AD851
:103D50000C2904292029E11AE80C29043230320503
:103D60001AF80C2904323429F11308012A2004021C
:043D70003B2C0000E8
:0400000508000131BD
:00000001FF
